:0200000280007C
:100000000000200059010800F10108000B4A080017
:10001000F5010800F7010800F9010800FB010800DC
:10002000E87F00000000000000000000FD01080063
:10003000FF01080000000800010208000302080098
:100040004155080049550800515508005955080008
:100050006155080069550800715508007955080078
:1000600081550800895508009155080099550800E8
:10007000A1550800A9550800B1550800B955080058
:10008000C1550800C9550800D1550800D9550800C8
:10009000E1550800E9550800F1550800F955080038
:1000A00001560800095608001156080019560800A4
:1000B0002156080029560800315608003956080014
:1000C0004156080049560800515608005956080084
:1000D00061560800695608007156080079560800F4
:1000E0008156080089560800915608009956080064
:1000F000A1560800A9560800B1560800B9560800D4
:10010000C1560800C9560800D1560800D956080043
:10011000E1560800E9560800F1560800F9560800B3
:10012000015708000957080011570800195708001F
:10013000586E0800586E080090110000586E0800B4
:10014000000014400000000000800800E01B0000D8
:10015000000014400000000072B6134B134A174809
:100160000360196881F3088882F30A8804F01CF997
:100170000F4B07E003F10C049A685968186800F007
:100180001FF823460B4A9342F4D306E01C465968F5
:1001900054F8080B00F023F82346074A9342F5D39E
:1001A00062B605F0C4FAFEE70000080000F01F0088
:1001B00030010800480108005801080008ED00E07F
:1001C000002393420AD210B450F8044B41F8044B78
:1001D00004339342F8D35DF8044B70477047002313
:1001E00003E0002240F8042B04338B42F9D370471C
:1001F000FEE7FEE7FEE7FEE7FEE7FEE7FEE7FEE7D7
:10020000FEE7FEE7FEE7FFFF80B582B000AF786053
:100210007968024804F062FB00BEFDE7A45B0800B9
:1002200080B58AB000AFB9607B600346FB731346AC
:10023000BB73BB7B012B01D001232AE0174ABB7B98
:1002400013747B687B61BB68BB6100233B77002331
:100250007B770123BB770123FB77002387F82030CE
:10026000002387F82130FB7B87F82230002387F8B2
:100270002330002387F8243007F114031946074878
:1002800005F08CF8054B064A9A60044B054ADA6083
:10029000002318462837BD4680BD00BF10870800E0
:1002A000714108000541080080B584B000AF786056
:1002B00039600023FB60094B1B7C002B02D14FF0FF
:1002C000FF3306E03A687968054800F023F8F860E3
:1002D000FB6818461037BD4680BD00BF1087080078
:1002E000E502080080B582B000AF7860084B1B7C47
:1002F000002B02D14FF0FF3306E0054B9B68391D00
:10030000012203489847012318460837BD4680BD9F
:100310001087080080B59CB002AFF860B9607A60C1
:1003200000233B660023FB650023FB61002387F865
:100330004A3000237B61BB687B667B6E1B78002B99
:1003400000F0D2817B6E1B7887F8493097F84930EE
:10035000252B0BD097F84920FB6810469847FB697E
:100360000133FB617B6E01337B66BCE1012387F8BF
:100370004B3000237B65002387F85B3020E07B6EE9
:1003800001337B667B6E1B7887F8493097F84930DC
:100390002F2B0FD997F84930392B0BD87A6D13468C
:1003A0009B0013445B001A4697F849301344303BD6
:1003B0007B6505E07B6E013B7B66012387F85B3044
:1003C00097F85B3083F00103DBB2002BD7D17B6E53
:1003D00001337B667B6E1B782E2B2ED100233B6571
:1003E000002387F85B3020E07B6E01337B667B6EF9
:1003F0001B7887F8493097F849302F2B0FD997F899
:100400004930392B0BD83A6D13469B0013445B00DF
:100410001A4697F849301344303B3B6505E07B6E44
:10042000013B7B66012387F85B3097F85B3083F0F4
:100430000103DBB2002BD7D102E07B6E013B7B6670
:100440007B6E01337B667B6E1B7887F8493097F8AB
:100450004930642B24D097F84930692B20D097F885
:100460004930662B1CD097F84930462B18D097F8A6
:100470004930782B14D097F84930582B10D097F882
:1004800049306F2B0CD097F84930622B08D097F881
:100490004930702B04D097F84930752B40F0DC8040
:1004A00097F84930642B03D097F84930692B15D160
:1004B0007B681A1D7A601B68BB6107F1180107F1A0
:1004C000200097F84B3000930A23012204F03CFAF5
:1004D000F86507F12002FB6D13443B6697F849303D
:1004E000582B03D097F84930782B1CD197F8493016
:1004F000782B02D1002387F84B307B681A1D7A6075
:100500001B687B6107F1140107F1200097F84B305D
:1005100000931023002204F017FAF86507F1200277
:10052000FB6D13443B6697F849306F2B0BD097F85F
:100530004930622B07D097F84930702B03D097F8D9
:100540004930752B6AD197F84930702B0DD17B68F3
:100550001A1D7A601B683B6107F1100107F1140353
:100560000422184605F0EAF804E07B681A1D7A6058
:100570001B687B6197F84930623B132B3AD801A284
:1005800052F823F0DD050800F5050800F505080020
:10059000F5050800F5050800F5050800F505080053
:1005A000F5050800F5050800F5050800F505080043
:1005B000F5050800F5050800D5050800E505080063
:1005C000F5050800F5050800F5050800F505080023
:1005D000ED050800082387F84A300CE0022387F86D
:1005E0004A3008E0102387F84A3004E00A2387F8ED
:1005F0004A3000E000BF97F84A2007F1140107F1E4
:10060000200097F84B3000931346002204F09CF929
:10061000F86507F12002FB6D13443B667A6D07F124
:100620001C01FB6800930B46F96D202004F06CF967
:100630003B6E002B54D00AE03B6E5A1E3A661B7884
:100640001A46FB6810469847FB690133FB613B6E15
:100650001B78002BF0D143E097F84930632B0BD186
:100660007B681A1D7A601B687B64FB68786C98470E
:10067000FB690133FB6133E097F84930732B27D1D5
:100680007B681A1D7A601B68FB64FB6C002B27D00B
:10069000F86C05F08EF80346FB657A6D07F11C01D6
:1006A000FB6800930B46F96D202004F02DF90AE059
:1006B000FB6C5A1CFA641B781A46FB681046984774
:1006C000FB690133FB61FB6C1B78002BF0D107E069
:1006D00097F84920FB6810469847FB690133FB6196
:1006E0007B6E01337B6628E600BFFB6918466837DE
:1006F000BD4680BD80B584B000AF0346FB80FB885B
:100700001B0A9BB2FB60FB68052B3FD801A252F885
:1007100023F000BF2D0708003D0708004D07080023
:100720005D0708006D0708007D070800FB88DBB245
:100730001A4A012101FA03F313642AE0FB88DBB2B1
:10074000164A012101FA03F3536422E0FB88DBB26D
:10075000124A012101FA03F393641AE0FB88DBB229
:100760000F4A012101FA03F3136412E0FB88DBB2A4
:100770000B4A012101FA03F353640AE0FB88DBB260
:10078000074A012101FA03F3936402E00548FFF7E9
:100790003BFD00BF1037BD4680BD00BF00100040CC
:1007A00000100240B85B080080B582B000AF7860EE
:1007B00039603B68202B02D91048FFF725FD7B6884
:1007C00003F120023B68DBB25B09DBB29B00134400
:1007D00019683B68DBB203F01F0301229A407B6873
:1007E00003F120003B68DBB25B09DBB29B000344F2
:1007F0000A431A6000BF0837BD4680BD285C080068
:1008000080B584B000AFF860B9601346FB71BB6877
:10081000202B02D90C48FFF7F7FCFA68BB6840337D
:100820001B0113441B6823F4E022FB791B0403F42F
:10083000E0231A43F968BB6840331B010B441A607C
:1008400000BF1037BD4680BD045D080080B485B090
:1008500000AFF860B9607A603B60054B1B68013BF4
:10086000034A136000BF1437BD465DF8047B704730
:10087000D87F080080B485B000AFF860B9607A60B6
:100880003B60054B1B680133034A136000BF1437FC
:10089000BD465DF8047B7047D87F080080B584B002
:1008A00002AF04F0BBFD04F09CFD03F093FC0121BA
:1008B0007E4802F017F97E4B002201217B4804F0AC
:1008C000ECF940F21F50FFF715FF7A4804F0B3F837
:1008D000794804F0B0F8794804F0ADF8784804F0AD
:1008E000AAF80121774804F0EBF8774B01221A614E
:1008F000072000F0BBFD0346744A1361744803F0FF
:10090000EDFF744804F084FA724B02221A81714B95
:1009100003221A706F4B02225A706E4B01229A7199
:100920006C4B2022DA726B4B4FF480729A81694BC8
:100930000022DA816749684804F0F0F94023002278
:100940000021654802F0ACF98023002201216248B1
:1009500002F0A6F9C023002202215F4802F0A0F9AC
:100960005E4804F08CFA5D4B02221A815B4B032235
:100970001A705A4B02225A70584B01229A71574BE7
:100980002022DA72554B4FF480729A81534B002229
:10099000DA815249524804F002FA40230022002131
:1009A0004F4802F07DF98023002201214C4802F0DB
:1009B00077F9C02300220221494802F071F9494821
:1009C00001F0A6FA07214748FFF7EEFE022145484D
:1009D000FFF7EAFE032207214248FFF711FF022238
:1009E00002214048FFF70CFF07223E493E4801F034
:1009F000A9FB02223B493D4801F0A4FB00230093E0
:100A00003B4B394A3B49344802F026FB0023009314
:100A1000394B364A3949324804F0EEFA384803F087
:100A20005DFF384B1B68002B1DD0374B1B689B02AA
:100A3000364A13443B604FF480637B603B460CCBEB
:100A40002E49274804F0EBFA0346002B04D12E4B25
:100A50001B6801332C4A13602B4B1B68042B02D1FB
:100A6000294B00221A60274B1B68032BD9D8284B2F
:100A70001B689B02254A13443B604FF480637B60F4
:100A80003B460CCB1B49144804F07CFA0346002B70
:100A900004D11F4B1B6801331D4A13601C4B1B689C
:100AA000042BBED11A4B00221A60BAE70000104096
:100AB000D47F0800E81500802825008048250080A4
:100AC000401700804407008000200240C07F0800DB
:100AD000E05D08002C970800007010404097080067
:100AE0000080104000401040D4970800E4970800B0
:100AF00075080800549708004D08080094970800EE
:100B00000C5E0800D87F080028970800248708009A
:100B10002497080080B400AF024B1846BD465DF82C
:100B2000047B70470024F40080B400AF0A4BD3F874
:100B30006831002B09D0084BD3F86831012B02D162
:100B4000064B1B6803E0002301E0054B1B681846B9
:100B5000BD465DF8047B704700100040F897080020
:100B6000F497080080B400AF034B1B681846BD46DD
:100B70005DF8047B704700BFFC97080080B400AFAD
:100B8000024B1846BD465DF8047B704740420F009B
:100B900080B400AF074BD3F8C03103F00103002B42
:100BA00002D04FF4004300E000231846BD465DF834
:100BB000047B70470010004080B483B000AF002376
:100BC0007B600D4BD3F8003103F44023002B03D09E
:100BD000B3F5402F03D005E0084B7B6005E0084BE0
:100BE0007B6002E000237B6000BF7B6818460C3707
:100BF000BD465DF8047B704700100040006CDC02CD
:100C0000008793032DE9B04F86B000AF00237B61CE
:100C10002C4BD3F8003203F00703022B0ED0022B2B
:100C200012D8002B02D0012B04D00DE0FFF772FF89
:100C300078610AE0FFF778FF786106E0FFF7BCFF14
:100C400003465B087B6100E000BF1E4BD3F8043213
:100C500003F00103002B2FD17B6900229A469346B3
:100C6000184BD3F8103200229846914608FB0BF23D
:100C70000AFB09F31344AAFB08452B441D46114BFC
:100C8000D3F8143200223B607A60D7E90023204673
:100C9000294604F085FE02460B46C7E90223094BAC
:100CA000D3F804321B0CDAB27B6902FB03F37B61DD
:100CB000BB687A6913447B617B6918461837BD4667
:100CC000BDE8B08F001000402DE9B04FA6B000AFD6
:100CD000034687F88F30FFF795FFC7F89400884BDD
:100CE000D3F8043203F00103002B40F0018197F8A0
:100CF0008F30032B00F2F88001A252F823F000BFDE
:100D0000110D08008F0D0800030E0800770E080073
:100D1000D7F894300022C7F88030C7F88420D7E98C
:100D2000204522462B464FF000004FF00001D9002D
:100D300041EA5271D00002460B46214651183962F1
:100D4000294643EB01017962D7E908120B46DB180B
:100D5000BB61134642EB0303FB61D7E90634184637
:100D60002146674BD3F818320022BB67FA67BB6F86
:100D700003F03F033B6700237B67D7E91C2304F0A4
:100D80000FFE02460B461346C7F89430B1E0D7F881
:100D900094300022BB66FA66D7E91A4522462B46F4
:100DA0004FF000004FF00001D90041EA5271D0002D
:100DB00002460B46214612EB010A294643EB010B82
:100DC0001AEB0A033B614BEB0B037B61D7E904ABE6
:100DD000504659464A4BD3F818321B0A00223B664C
:100DE0007A663B6E03F03F03BB650023FB65D7E9E2
:100DF000162304F0D5FD02460B461346C7F894307F
:100E000077E0D7F8943000223B657A65D7E914453E
:100E100022462B464FF000004FF00001D90041EA76
:100E20005271D00002460B46214612EB01082946BA
:100E300043EB010918EB0803BB6049EB0903FB60B6
:100E4000D7E90289404649462D4BD3F818321B0C8E
:100E50000022BB64FA64BB6C03F03F033B640023D5
:100E60007B64D7E9102304F09BFD02460B46134632
:100E7000C7F894303DE0D7F894300022BB63FA63A2
:100E8000D7E90E8942464B464FF000004FF0000173
:100E9000D90041EA5271D00002460B46414654182F
:100EA000494643EB01010D4623193B6045EB050321
:100EB0007B60D7E9004520462946114BD3F818320C
:100EC0001B0E00223B637A633B6B03F03F03BB6264
:100ED0000023FB62D7E90A2304F062FD02460B46B9
:100EE0001346C7F8943004E00023C7F8943000E0BC
:100EF00000BFD7F8943018469837BD46BDE8B08F8C
:100F00000010004080B500AF0020FFF7DDFE024674
:100F1000044BD3F84032DBB20133B2FBF3F3184693
:100F200080BD00BF001000402DE9B04F86B000AF7B
:100F300000237B612D4BD3F8003203F00703022B13
:100F40000ED0022B12D8002B02D0012B04D00DE0C2
:100F5000FFF7E0FD78610CE0FFF7E6FD786108E05F
:100F6000FFF72AFE03465B087B6102E000237B61FA
:100F700000BF1E4BD3F8043203F00103002B2FD126
:100F80007B6900229A469346184BD3F81032002210
:100F90009846914608FB0BF20AFB09F31344AAFB9F
:100FA00008452B441D46114BD3F8143200223B60F8
:100FB0007A60D7E900232046294604F0F1FC024676
:100FC0000B46C7E90223094BD3F804321B0CDAB2F3
:100FD0007B6902FB03F37B61BB687A6913447B6125
:100FE0007B6918461837BD46BDE8B08F0010024037
:100FF0002DE9B04FA6B000AF034687F88F30FFF75A
:1010000093FFC7F89400884BD3F8043203F0010330
:10101000002B40F0018197F88F30032B00F2F8800D
:1010200001A252F823F000BF39100800B7100800E1
:101030002B1108009F110800D7F894300022C7F840
:101040008030C7F88420D7E9204522462B464FF050
:1010500000004FF00001D90041EA5271D000024671
:101060000B46214651183962294643EB010179624A
:10107000D7E908120B46DB18BB61134642EB0303AA
:10108000FB61D7E9063418462146674BD3F818327E
:101090000022BB67FA67BB6F03F03F033B67002387
:1010A0007B67D7E91C2304F07BFC02460B46134602
:1010B000C7F89430B1E0D7F894300022BB66FA66E6
:1010C000D7E91A4522462B464FF000004FF00001A9
:1010D000D90041EA5271D00002460B46214612EB7C
:1010E000010A294643EB010B1AEB0A033B614BEB68
:1010F0000B037B61D7E904AB504659464A4BD3F802
:1011000018321B0A00223B667A663B6E03F03F03EF
:10111000BB650023FB65D7E9162304F041FC0246BA
:101120000B461346C7F8943077E0D7F89430002286
:101130003B657A65D7E9144522462B464FF00000FF
:101140004FF00001D90041EA5271D00002460B462F
:10115000214612EB0108294643EB010918EB08036D
:10116000BB6049EB0903FB60D7E902894046494669
:101170002D4BD3F818321B0C0022BB64FA64BB6CF5
:1011800003F03F033B6400237B64D7E9102304F0A2
:1011900007FC02460B461346C7F894303DE0D7F8EB
:1011A00094300022BB63FA63D7E90E8942464B466E
:1011B0004FF000004FF00001D90041EA5271D00019
:1011C00002460B4641465418494643EB01010D4681
:1011D00023193B6045EB05037B60D7E900452046BA
:1011E0002946114BD3F818321B0E00223B637A6359
:1011F0003B6B03F03F03BB620023FB62D7E90A238A
:1012000004F0CEFB02460B461346C7F8943004E0C8
:101210000023C7F8943000E000BFD7F89430184698
:101220009837BD46BDE8B08F0010024080B500AFD2
:101230000020FFF7DDFE0246044BD3F84032DBB25C
:101240000133B2FBF3F3184680BD00BF001002402B
:1012500080B582B000AF00237B60274BD3F83434D5
:1012600003F00303032B3FD801A252F823F000BF81
:1012700081120800D1120800D9120800E1120800FA
:101280001D4BD3F8303403F00303032B1CD801A209
:1012900052F823F0A5120800B1120800B912080094
:1012A000C1120800FFF788FC03469B087B600EE034
:1012B000FFF73AFC78600AE0FFF760FC786006E030
:1012C000FFF77AFC786002E000237B6000BF0EE04D
:1012D000FFF720FC78600AE0FFF714FE786006E074
:1012E000FFF756FC786002E000237B6000BF7B685C
:1012F00018460837BD4680BD001000402DE9B04FAC
:101300008CB000AF78610023FB620123FB610023F6
:10131000BB6200237B6200233B627B69072B1CD8E6
:10132000504A7B6928335B0113441B6803F00703B1
:10133000BB624C4A7B6928335B01134404331B684E
:101340001B0ADBB23B62474A7B6928335B011344CB
:1013500004331B68DBB27B622CE07B690E2B11D15E
:10136000404BD3F8C03603F00703BB623D4BD3F8C4
:10137000C4361B0ADBB23B623A4BD3F8C436DBB24D
:101380007B6217E07B690F2B11D1364BD3F8E03627
:1013900003F00703BB62334BD3F8E4361B0ADBB21E
:1013A0003B62304BD3F8E436DBB27B6202E02E487E
:1013B000FEF72AFFBB6A032B24D801A252F823F0C0
:1013C000D1130800D9130800F5130800FD13080015
:1013D000FFF73EFFF86218E0224BD3F8FC36DBB291
:1013E0000133FB61FFF78EFD0246FB69B2FBF3F3AD
:1013F000FB620AE0FFF78EFBF86206E0FFF7DCFB1A
:10140000F86202E00023FB6200BFFB6A00229A46FA
:1014100093467B6A0022BB60FA60D7E902120B4652
:101420005C1C134643F1000504FB0BF20AFB05F3B9
:101430001344AAFB04894B4499463A6A7B6A1344D5
:10144000013300223B607A60D7E9002340464946D9
:1014500004F0A6FA02460B46134618463037BD463E
:10146000BDE8B08F001002402C5E080080B584B04B
:1014700000AF78600023FB600023BB607B68072B14
:1014800008D8254A7B685B01134403F5A1631B68F8
:10149000BB6012E07B680E2B04D11F4BD3F8C8361B
:1014A000BB600AE07B680F2B04D11B4BD3F8E836F6
:1014B000BB6002E01948FEF7A7FEBB68042B22D8E8
:1014C00001A252F823F000BFDD140800E514080063
:1014D000ED140800F5140800FD140800FFF71AFBCE
:1014E000F86013E0FFF768FBF8600FE0FFF79EFE7F
:1014F000F8600BE0FFF736FBF86007E07868FFF76D
:10150000FDFEF86002E00023FB6000BFFB681846A8
:101510001037BD4680BD00BF00100240445E080089
:1015200080B584B000AF78607B681B78FB60FB6897
:101530000F2B02D92948FEF767FE7B689B78FF2BAB
:1015400002D02748FEF760FEFB68072B17D87B68A0
:101550005B78244A1946FB6828335B011344196001
:101560007B68DB781B029BB27A6892781D491A432C
:10157000FB6828335B010B4404331A602AE0FB68E4
:101580000E2B10D17B685A78164BC3F8C0267B68A7
:10159000DB781B029BB27A6892781146114A0B43A2
:1015A000C2F8C43616E0FB680F2B10D17B685A785E
:1015B0000C4BC3F8E0267B68DB781B029BB27A6891
:1015C00092781146074A0B43C2F8E43602E0064817
:1015D000FEF71AFE1037BD4680BD00BF5C5E0800F6
:1015E000785E080000100240A45E080080B586B056
:1015F00000AF0346FB7100237B6100233B610023A6
:10160000FB600023BB603F4BD3F8103603F48033FC
:10161000002B06D13B4BD3F8143603F08053002B3C
:1016200002D03948FEF7F0FD384BD3F80431374A81
:1016300043F00103C2F80431FFF70AFE0246334BC0
:10164000D3F80034DBB20133B2FBF3F3304A18466F
:101650009047FB79002B12D107F114032D4A19464C
:101660003020904707F110032A4A1946312090474D
:1016700007F10C03274A19463220904711E007F181
:101680001403244A19463320904707F11003214AD6
:1016900019463420904707F10C031E4A194635209D
:1016A000904707F108031B4A19460C2090471A4B34
:1016B00098477B6903F01F023B695B0103F4FC63FD
:1016C0001A43FB68DB0203F47E331343FA79002AE2
:1016D00001D1002201E04FF440220C491343C1F82C
:1016E00000310A4BD3F80431084A23F00103C2F851
:1016F0000431BB680949184600F0A2FA00BF183748
:10170000BD4680BD00200040C05E080000100040C3
:10171000F99F001357A0001347A0001300A3E11185
:1017200080B582B000AF00237B60174BD3F8103632
:1017300003F40043002B06D1134BD3F8143603F007
:101740008053002B02D01148FEF75EFDFFF780FDAD
:1017500002460F4BD3F80034DBB20133B2FBF3F394
:101760000C4A184690473B1D0B4A19460D209047DE
:101770000A4B98477B680A49184600F061FA00BF97
:101780000837BD4680BD00BF00200040545F080000
:1017900000100040F99F001357A0001347A000134A
:1017A00000A3E11180B582B000AF78605C4B4FF4CC
:1017B000C022C3F820267B681A785A4BC3F800224F
:1017C000584A7B685B68C2F81032564A7B689B684F
:1017D000C2F814327B681B7B062B5ED801A252F83C
:1017E00023F000BF01180800171808002D18080082
:1017F00043180800591808006F18080085180800D9
:10180000484BD3F8043223F47F03464A43F4801351
:10181000C2F8043242E0434BD3F8043223F47F038E
:10182000404A43F48813C2F8043237E03D4BD3F802
:10183000043223F47F033B4A43F49013C2F804328A
:101840002CE0384BD3F8043223F47F03354A43F4B9
:101850009813C2F8043221E0324BD3F8043223F457
:101860007F03304A43F4A013C2F8043216E02D4B34
:10187000D3F8043223F47F032A4A43F4A813C2F8AE
:1018800004320BE0274BD3F8043223F47F03254ABC
:1018900043F4B013C2F8043200E000BF214BD3F888
:1018A0000432204A23F00203C2F804321C4B4FF4E6
:1018B000C022C3F830261B4BD3F80C329BB25B0816
:1018C0001949184600F0BCF9164BD3F80432154AF2
:1018D00043F40053C2F80432124BD3F80C329BB2DB
:1018E000124AA2FB03239B080F49184600F0A8F9EF
:1018F0000C4BD3F804320B4A23F40053C2F80432E1
:10190000084BD3F80C329BB2084AA2FB03235B08B6
:101910000549184600F094F900BF0837BD4680BD60
:10192000002000400010004000A3E111ABAAAAAAC9
:1019300080B485B000AF03460A46FB711346BB7105
:10194000FB79FB601E4BD3F81822FB68DB00BF213C
:1019500001FA03F3DB431340BB60FB68DB0080222A
:101960009A401749BB681343C1F81832BB7903F09A
:101970003F02FB68DB009A401149BB681343C1F882
:10198000183200BF0E4BD3F81822FB68DB00402151
:1019900001FA03F31340002BF4D0094BD3F81822BB
:1019A000FB68DB00402101FA03F305491343C1F84A
:1019B000183200BF1437BD465DF8047B704700BF86
:1019C0000010004080B582B000AF78605C4B4FF4EF
:1019D000C012C3F820267B681A785A4BC3F800223D
:1019E000584A7B685B68C2F81032564A7B689B682D
:1019F000C2F814327B681B7B062B5ED801A252F81A
:101A000023F000BF211A0800371A08004D1A0800F9
:101A1000631A0800791A08008F1A0800A51A08002E
:101A2000484BD3F8043223F47F03464A43F480132F
:101A3000C2F8043242E0434BD3F8043223F47F036C
:101A4000404A43F48813C2F8043237E03D4BD3F8E0
:101A5000043223F47F033B4A43F49013C2F8043268
:101A60002CE0384BD3F8043223F47F03354A43F497
:101A70009813C2F8043221E0324BD3F8043223F435
:101A80007F03304A43F4A013C2F8043216E02D4B12
:101A9000D3F8043223F47F032A4A43F4A813C2F88C
:101AA00004320BE0274BD3F8043223F47F03254A9A
:101AB00043F4B013C2F8043200E000BF214BD3F866
:101AC0000432204A23F00203C2F804321C4B4FF4C4
:101AD000C012C3F830261B4BD3F80C329BB25B0804
:101AE0001949184600F0ACF8164BD3F80432154AE1
:101AF00043F40053C2F80432124BD3F80C329BB2B9
:101B0000124AA2FB03239B080F49184600F098F8DD
:101B10000C4BD3F804320B4A23F40053C2F80432BE
:101B2000084BD3F80C329BB2084AA2FB03235B0894
:101B30000549184600F084F800BF0837BD4680BD4F
:101B4000002000400010024000A3E111ABAAAAAAA5
:101B500080B485B000AF03460A46FB711346BB71E3
:101B6000FB79FB601E4BD3F81822FB68DB00BF211A
:101B700001FA03F3DB431340BB60FB68DB00802208
:101B80009A401749BB681343C1F81832BB7903F078
:101B90003F02FB68DB009A401149BB681343C1F860
:101BA000183200BF0E4BD3F81822FB68DB0040212F
:101BB00001FA03F31340002BF4D0094BD3F8182299
:101BC000FB68DB00402101FA03F305491343C1F828
:101BD000183200BF1437BD465DF8047B704700BF64
:101BE0000010024080B584B000AF03463A60FB713C
:101BF0000B46BB71BB79002B01D0012300E0002311
:101C0000FB60FB79002B0CD00B4AFB68C2F86031FB
:101C1000094B0022C3F868210849386800F010F821
:101C200005E0054AFB6843F00203C2F8603100BFDB
:101C30001037BD4680BD00BF0010004000A3E11179
:101C40002DE9B04384B000AF78603960796800292D
:101C500032D07968002088468146396800200A46DB
:101C6000034602FB09F008FB03F10144A8FB02450F
:101C70004B191D46134A4FF000032046294603F036
:101C80008FFE02460B46C7E90223D7E90223012B48
:101C900002D30D48FEF7B8FAD7E902014FF000026F
:101CA0004FF00003820842EA81728B08C7E90223E1
:101CB000BB68184602F03CFF00BF1037BD46BDE8C8
:101CC000B08300BF40420F00E85F080080B483B0DB
:101CD00000AF0346FB7197F90730002B0BDBFB7954
:101CE00003F01F02074997F907305B09012000FA4A
:101CF00002F241F8232000BF0C37BD465DF8047B9B
:101D0000704700BF00E100E080B584B000AF03463B
:101D1000FB80FB881B0A9BB2FB60FB68052B3FD84E
:101D200001A252F823F000BF411D0800511D080018
:101D3000611D0800711D0800811D0800911D08002B
:101D4000FB88DBB21A4A012101FA03F313642AE08B
:101D5000FB88DBB2164A012101FA03F3536422E047
:101D6000FB88DBB2124A012101FA03F393641AE003
:101D7000FB88DBB20F4A012101FA03F3136412E07E
:101D8000FB88DBB20B4A012101FA03F353640AE03A
:101D9000FB88DBB2074A012101FA03F3936402E0F6
:101DA0000548FEF731FA00BF1037BD4680BD00BFC1
:101DB00000100040001002401460080080B582B09E
:101DC00000AF786039603B68202B02D91048FEF7DD
:101DD0001BFA7B6803F148023B68DBB25B09DBB2AC
:101DE0009B00134419683B68DBB203F01F03012218
:101DF0009A407B6803F148003B68DBB25B09DBB2C9
:101E00009B0003440A431A6000BF0837BD4680BDEB
:101E10002C60080080B582B000AF786039603B6804
:101E2000202B02D91048FEF7EFF97B6803F120025E
:101E30003B68DBB25B09DBB29B00134419683B686B
:101E4000DBB203F01F0301229A407B6803F12000FC
:101E50003B68DBB25B09DBB29B0003440A431A60B8
:101E600000BF0837BD4680BDB460080080B582B0B1
:101E700000AF786039603B68202B02D91048FEF72C
:101E8000C3F97B6803F128023B68DBB25B09DBB274
:101E90009B00134419683B68DBB203F01F03012267
:101EA0009A407B6803F128003B68DBB25B09DBB238
:101EB0009B0003440A431A6000BF0837BD4680BD3B
:101EC0003C61080080B584B000AF78600023FB60FF
:101ED00009E00D4AFB6852F823307A689A4206D02E
:101EE000FB680133FB60FB68012BF2D900E000BF07
:101EF000FB68012B02D90548FEF786F9FB681846F6
:101F00001037BD4680BD00BFC4610800D86108001D
:101F100080B584B000AF78607868FFF7D3FFF860D1
:101F20007868FFF7CFFF0346104A32F8133018469F
:101F3000FFF7EAFE7868FFF7C5FF03460C4A32F860
:101F40001330184603F0ECF90A4AFB6852F82330C4
:101F50001A467B689A607B681B6843F001027B68C5
:101F60001A6000BF1037BD4680BD00BFCC610800BD
:101F7000D0610800DC7F080080B588B000AFF86051
:101F8000B9607A603B60BB6A03F00F03002B02D09C
:101F90004148FEF739F90023FB610023BB610023B0
:101FA0007B6100233B61BB681B0A03F00303FB61F9
:101FB000BB681B0B03F00303BB61BB689B0B03F007
:101FC00003037B61BB681B0CC3F3090301333B6153
:101FD000FB69022B02D10423FB6102E0FB690133A0
:101FE000FB617B68002B49D07B68FA69B3FBF2F296
:101FF000F96901FB02F29B1A002B3FD13B68002BD1
:102000003CD03B68FA69B3FBF2F2F96901FB02F2DA
:102010009B1A002B32D1BB69032B01D10423BB6176
:102020007B69032B01D104237B61FB68BA681A60CA
:102030003B69FA6902FB03F3BA6903FB02F27B68AE
:102040001A44BB69F96901FB03F3D31A1A46FB680A
:102050005A603B69FA6902FB03F37A6903FB02F2F7
:102060003B681A447B69F96901FB03F3D31A1A46EA
:10207000FB689A60FB68BA6ADA6009E0FB680022D4
:102080001A60FB6800225A60FB6800229A6000BF59
:1020900000BF2037BD4680BD0C62080080B582B00D
:1020A00000AF78607B68002B02D12548FEF7ACF8C2
:1020B0007B689A687B681B7B19461046FFF7D6FE43
:1020C00000BF7B689B6803F138027B681B7B5B0960
:1020D000DBB29B0013441A687B681B7B03F01F0371
:1020E00022FA03F303F00103002BEAD17B689B681B
:1020F00003F178027B681B7B5B09DBB29B00134416
:1021000019687B681B7B03F01F0301229A407B68E0
:102110009B6803F178007B681B7B5B09DBB29B004B
:1021200003440A431A607B689A687B681B7B1946E4
:102130001046FFF76FFE00BF0837BD4680BD00BFE9
:102140008862080080B586B000AFF860B9607A6038
:10215000FB68002B02D07B68202B02D91848FEF7C1
:1021600053F800237B61B868FFF7ACFE3861B868AC
:1021700002F007FD786110220021F86803F0E0FA10
:10218000FB68BA689A607B68DAB2FB681A737A698E
:102190007B6813440B49FA6841F823200A4A3B69DB
:1021A000134493F90030184602F0D2FCFB689B6898
:1021B00079681846FFF702FE00BF1837BD4680BD9C
:1021C000A862080000980800D461080080B584B0B7
:1021D00000AFF860B9607A60FB68002B02D1064856
:1021E000FEF712F8FB68BA681A60FB687A685A60F2
:1021F00000BF1037BD4680BD0C63080080B588B0B5
:1022000002AFF860B9607A603B607B68002B02D057
:102210003B68002B02D11748FDF7F6FFFB681B7BDC
:10222000202B02D91448FDF7EFFFFB689B68184686
:10223000FFF748FE7861114A7B6952F82320FB685A
:102240001B7B1B0113443B613B6A00933B687A682C
:10225000B9683869FFF790FEFB689A68FB681B7BDA
:102260001B01134403F58163BA681A6000BF183775
:10227000BD4680BD2C63080070630800DC7F080049
:1022800080B584B000AF78607B68002B02D11A481B
:10229000FDF7BAFF7B681B7BFB60FB68202B02D934
:1022A0001648FDF7B1FF7B689B68F9681846FFF791
:1022B000B1FD7B689A687B681B7B40331B0113442C
:1022C0001B6803F00203002B11D17B689A68FB683E
:1022D0001B01134403F581631B687A68916843F01E
:1022E0000402FB681B010B4403F581631A6000BF05
:1022F0001037BD4680BD00BFD0630800F063080002
:1023000090B589B000AF7860786802F03AFCB861A7
:102310000023FB610023FB750023BB7500237B7545
:102320000023FB61C2E0FA69BB691344644A52F8B6
:1023300023303B613B69002B00F0B4803B691B7B81
:1023400003F01F03FB733B699B6803F148023B6981
:102350001B7B5B09DBB29B0013441A68FB7B22FAF0
:1023600003F303F00103002B14BF01230023FB75CB
:102370003B699B6803F158023B691B7B5B09DBB23D
:102380009B0013441A68FB7B22FA03F303F001035A
:10239000002B14BF01230023BB75FB7D002B1DD038
:1023A000BB7D002B1AD0FA7B3B699B6803F1580177
:1023B0003B691B7B5B09DBB29B000B44012101FAEB
:1023C00002F21A603B691B68002B07D03B691C684E
:1023D0003B695968002301223869A0473B699B6823
:1023E00003F160023B691B7B5B09DBB29B0013447A
:1023F0001A68FB7B22FA03F303F00103002B14BFDE
:10240000012300237B75FB7D002B1DD07B7D002BE2
:102410001AD0FA7B3B699B6803F160013B691B7B27
:102420005B09DBB29B000B44012101FA02F21A6046
:102430003B691B68002B07D03B691C683B695968E6
:10244000012301223869A0473B699B6803F14002E0
:102450003B691B7B5B09DBB29B0013441A68FB7B67
:1024600022FA03F303F00103002B1CD0FA7B3B6933
:102470009B6803F140013B691B7B5B09DBB29B005E
:102480000B44012101FA02F21A603B691B68002B20
:1024900009D03B691C683B695968022300223869EE
:1024A000A04700E000BFFB690133FB61FB69202B03
:1024B0007FF639AF00BF00BF2437BD4690BD00BFD7
:1024C0000098080080B500AF0248FFF719FF00BF71
:1024D00080BD00BF0040104080B500AF0248FFF74C
:1024E0000FFF00BF80BD00BF0050104080B584B01A
:1024F00000AF0346FB80FB881B0A9BB2FB60FB68B6
:10250000052B3FD801A252F823F000BF2525080073
:1025100035250800452508005525080065250800D3
:1025200075250800FB88DBB21A4A012101FA03F382
:1025300013642AE0FB88DBB2164A012101FA03F397
:10254000536422E0FB88DBB2124A012101FA03F353
:1025500093641AE0FB88DBB20F4A012101FA03F30E
:10256000136412E0FB88DBB20B4A012101FA03F38A
:1025700053640AE0FB88DBB2074A012101FA03F346
:10258000936402E00548FDF73FFE00BF1037BD46EB
:1025900080BD00BF00100040001002401460080021
:1025A00080B584B000AF78607B68BB600023FB60BF
:1025B00009E0BA680C49FB6851F823309A4206D00A
:1025C000FB680133FB60FB68092BF2D900E000BF18
:1025D000FB68092B02D90548FDF716FEFB68184673
:1025E0001037BD4680BD00BF4864080098640800ED
:1025F00080B584B000AF78600B46FB707868FFF759
:10260000CFFFF8600C4AFB6832F813301846FFF72A
:102610006DFF0A4AFB6832F81330184602F080FE5C
:10262000FB7800221946786802F0FDFA0346184646
:102630001037BD4680BD00BF706408008464080088
:1026400080B582B000AF1048FFF7AAFF78600F4A4C
:102650007B6852F82330002B02D10D48FDF7D4FDE2
:102660000A4A7B6852F823300A497A6851F82220D6
:10267000104609497A6851F822201146984700BF50
:102680000837BD4680BD00BF0060104008990800B3
:10269000DC640800486408003099080080B582B006
:1026A00000AF1048FFF77CFF78600F4A7B6852F854
:1026B0002330002B02D10D48FDF7A6FD0A4A7B68A6
:1026C00052F823300A497A6851F822201046094905
:1026D0007A6851F822201146984700BF0837BD4656
:1026E00080BD00BF00701040089908001865080000
:1026F000486408003099080080B582B000AF1048E7
:10270000FFF74EFF78600F4A7B6852F82330002BAA
:1027100002D10D48FDF778FD0A4A7B6852F8233054
:102720000A497A6851F82220104609497A6851F816
:1027300022201146984700BF0837BD4680BD00BF24
:10274000008010400899080054650800486408009B
:102750003099080080B582B000AF1048FFF720FF25
:1027600078600F4A7B6852F82330002B02D10D4865
:10277000FDF74AFD0A4A7B6852F823300A497A6815
:1027800051F82220104609497A6851F82220114652
:10279000984700BF0837BD4680BD00BF009010407D
:1027A00008990800906508004864080030990800FE
:1027B00080B582B000AF1048FFF7F2FE78600F4A94
:1027C0007B6852F82330002B02D10D48FDF71CFD29
:1027D0000A4A7B6852F823300A497A6851F8222065
:1027E000104609497A6851F822201146984700BFDF
:1027F0000837BD4680BD00BF002012400899080080
:10280000CC650800486408003099080080B582B0A3
:1028100000AF1048FFF7C4FE78600F4A7B6852F89B
:102820002330002B02D10D48FDF7EEFC0A4A7B68ED
:1028300052F823300A497A6851F822201046094993
:102840007A6851F822201146984700BF0837BD46E4
:1028500080BD00BF003012400899080008660800DB
:10286000486408003099080080B582B000AF104875
:10287000FFF796FE78600F4A7B6852F82330002BF2
:1028800002D10D48FDF7C0FC0A4A7B6852F823309C
:102890000A497A6851F82220104609497A6851F8A5
:1028A00022201146984700BF0837BD4680BD00BFB3
:1028B0000040124008990800446608004864080077
:1028C0003099080080B582B000AF1048FFF768FE6D
:1028D00078600F4A7B6852F82330002B02D10D48F4
:1028E000FDF792FC0A4A7B6852F823300A497A685D
:1028F00051F82220104609497A6851F822201146E1
:10290000984700BF0837BD4680BD00BF0050124049
:10291000089908008066080048640800309908009B
:1029200080B582B000AF1048FFF73AFE78600F4ADA
:102930007B6852F82330002B02D10D48FDF764FC70
:102940000A4A7B6852F823300A497A6851F82220F3
:10295000104609497A6851F822201146984700BF6D
:102960000837BD4680BD00BF0060124008990800CE
:10297000BC660800486408003099080080B582B041
:1029800000AF1048FFF70CFE78600F4A7B6852F8E2
:102990002330002B02D10D48FDF736FC0A4A7B6834
:1029A00052F823300A497A6851F822201046094922
:1029B0007A6851F822201146984700BF0837BD4673
:1029C00080BD00BF0070124008990800F86608003A
:1029D000486408003099080080B500AF044B1B68BC
:1029E000044A126811460448984700BF80BD00BFE2
:1029F0005C990800589908000040134080B584B0E5
:102A000000AF0346FB80FB881B0A9BB2FB60FB68A0
:102A1000052B3FD801A252F823F000BF352A080049
:102A2000452A0800552A0800652A0800752A08006A
:102A3000852A0800FB88DBB21A4A012101FA03F358
:102A400013642AE0FB88DBB2164A012101FA03F382
:102A5000536422E0FB88DBB2124A012101FA03F33E
:102A600093641AE0FB88DBB20F4A012101FA03F3F9
:102A7000136412E0FB88DBB20B4A012101FA03F375
:102A800053640AE0FB88DBB2074A012101FA03F331
:102A9000936402E00548FDF7B7FB00BF1037BD4661
:102AA00080BD00BF0010004000100240146008000C
:102AB00080B582B000AF786039603B68072B02D9DF
:102AC0000648FDF7A1FB064A3B6832F8133018466A
:102AD000FFF794FF00BF0837BD4680BD546708006C
:102AE0003467080080B582B000AF7860396039681B
:102AF0007868FFF7DDFF054A3B6832F81330184667
:102B000002F00EFC00BF0837BD4680BD44670800D8
:102B100080B584B000AF78604FF47A73FB6006E054
:102B2000FB687D3BFB601A497D20FFF789F87B68D5
:102B3000D3F8043E03F01003002B02D1FB68002BF6
:102B4000EED17D23FB607B680022C3F8202E06E0D7
:102B5000FB687D3BFB600E497D20FFF771F87B68C9
:102B6000D3F8043E03F01003002B02D1FB68002BC6
:102B7000EED17B68D3F8043E03F01003002B0CBFAA
:102B800001230023DBB218461037BD4680BD00BFCD
:102B900000A3E11180B584B000AF786039603B6874
:102BA000002B02D13B48FDF72FFB0023FB600023E5
:102BB000BB603B681B781B0103F03003FA681343CA
:102BC000FB603B685B789B01DBB2FA681343FB60F8
:102BD0003B689B781B0203F48073FA681343FB6025
:102BE0003B68DB785B0203F40073FA681343FB6015
:102BF0007B68294A934207D13B681B79DB0203F4C7
:102C00000063FA681343FB603B685B791B0303F4C2
:102C10008053FA681343FB603B689B795B0303F4C2
:102C20000053FA681343FB603B689B7A9B0203F4F2
:102C30008063FA681343FB603B68DB7A013B1B044B
:102C400003F4F813FA681343FB603B689B89013B6C
:102C5000C3F30A03BA681343BB603B68DB891A04F9
:102C60000E4B1340BA681343BB607B68FA68C3F825
:102C7000002C7B68BA68C3F8042C3B681B89013BB5
:102C8000C3F30B027B68C3F81C2C00BF1037BD4692
:102C900080BD00BF88670800006010400000FF078B
:102CA00080B586B000AFF860B9603B601346FB7139
:102CB000BB68022B02D91F48FDF7A6FAFA68BB6869
:102CC00061335B0113441B687B61FA68BB68613345
:102CD0005B01134404331B683B617B6923F480630D
:102CE0007B61FB799B0203F480627B69134343F0B1
:102CF00001037B613B6923F0FF6323F4E0233B6125
:102D00003B681A040C4B13403A6913433B61FA6861
:102D1000BB6861335B0113447A691A60FA68BB6867
:102D200061335B01134404333A691A6000BF1837FA
:102D3000BD4680BDA86708000000FF0780B582B0CF
:102D400000AF786039603B68202B02D91048FDF74E
:102D50005BFA7B6803F148023B68DBB25B09DBB2DC
:102D60009B00134419683B68DBB203F01F03012288
:102D70009A407B6803F148003B68DBB25B09DBB239
:102D80009B0003440A431A6000BF0837BD4680BD5C
:102D90002C60080080B582B000AF786039603B6875
:102DA000202B02D91048FDF72FFA7B6803F150025F
:102DB0003B68DBB25B09DBB29B00134419683B68DC
:102DC000DBB203F01F0301229A407B6803F150003D
:102DD0003B68DBB25B09DBB29B0003440A431A6029
:102DE00000BF0837BD4680BDE467080080B582B0EB
:102DF00000AF786039603B68202B02D90A48FDF7A4
:102E000003FA7A683B6840331B0113441B6843F0A4
:102E1000010279683B6840331B010B441A6000BF14
:102E20000837BD4680BD00BF6C68080090B482B012
:102E300000AF0446084611461A462346FB71034676
:102E4000BB710B467B7113463B71FB795B0003F052
:102E50000202BB79DB0003F008031A437B791B01F4
:102E600003F010031A433B795B0103F020031A437C
:102E70003B7C042B05D03B7C013B1B0203F44073DD
:102E800001E04FF400731A433B7D042B05D13B7DD9
:102E9000013B1B0303F4405303E03B7D1B0303F49E
:102EA00040531A433B7E042B04D13B7E013B9B03E2
:102EB0009BB202E03B7E9B039BB21A433B7CF969C9
:102EC000B1FBF3F3013B1904044B0B40134343F0F4
:102ED000010318460837BD4690BC70470000FF0349
:102EE00080B586B000AFF860B960394681E80C0063
:102EF000F86800F08FF878617A691346DB009B1A56
:102F0000DB003F4A13443B61BB68002B02D13D48C4
:102F1000FDF77AF9BB68002B01D104236BE03B6815
:102F200003F00303002B02D03748FDF76DF93B682F
:102F300003F00303002B01D004235CE07B68002B2B
:102F400002D13248FDF760F97B68002B01D10423E0
:102F500051E07B6803F00303002B02D02C48FDF7FF
:102F600053F97B6803F00303002B01D0042342E0F4
:102F7000BB6893F83430DBB2BA680233DB00134429
:102F80009B68002B02D040F68E2334E0BB6893F898
:102F90003430DBB23A6839690233DB000B445A60E3
:102FA000BB6893F83430DBB27A6839690233DB00EE
:102FB0000B449A60BB6893F83430DBB23A68B96866
:102FC0000233DB000B445A60BB6893F83430DBB249
:102FD0007A68B9680233DB000B449A60BB6893F8E7
:102FE0003430DBB20133DBB203F00303DAB2BB6887
:102FF00083F83420002318461837BD4680BD00BF33
:1030000068990800146908003869080074690800A4
:10301000A069080080B584B000AF78600023FB6031
:103020000BE00B4AFB6852F823207B689A4201D1DF
:10303000FB6808E0FB680133FB60FB68072BF0D9F5
:103040000448FDF7E1F818461037BD4680BD00BFC3
:10305000F4680800D469080080B586B000AFF86055
:10306000B9607A603B60BB68002B02D12A48FDF74B
:10307000CBF87B68002B02D12848FDF7C5F8F8682B
:10308000FFF7C8FF78617A691346DB009B1ADB0003
:10309000234A13443B6140220021B86802F050FBF0
:1030A000BB6800221A60BB687A681A61BB683A681C
:1030B0009A60BB683A6ADA60FB68D3F8003C1B0C84
:1030C00003F01F030133DB08DAB2BB681A71FB6837
:1030D000D3F8003C03F48063002B02D1BB680422C8
:1030E0001A71BB681B79032B02D1BB6804221A71C9
:1030F00038220021386902F023FB3B69FA681A6024
:103100003B69BA685A603A6906497868FFF75EF821
:1031100000BF1837BD4680BDF0690800146A08007A
:10312000689908003351080080B584B000AF78601A
:1031300039603B68002B02D13248FDF765F83B68E7
:103140001B69002B02D13048FDF75EF87868FFF765
:1031500061FFF860FA681346DB009B1ADB002B4A1C
:103160001344BB60386801F0E5FE3B681B691846F4
:10317000FEF794FF3B681B68012B04D1002178689F
:1031800001F087FF03E00021786801F0AAFF78686A
:1031900001F0BEFE3B6800221A603B681433202217
:1031A0000021184602F0CCFA3B68002283F8352053
:1031B0003B68002283F83420BB68143320220021AE
:1031C000184602F0BDFABB680833042200211846F5
:1031D00002F0B6FABB6800221A73BB6800225A7369
:1031E000BB6800229A73BB680022DA73BB680022B6
:1031F0001A74BB68002283F8342000BF1037BD4624
:1032000080BD00BF3C6A0800606A08006899080039
:1032100080B584B000AF78607B68002B02D1144881
:10322000FCF7F2FF7B685B68B3F5005F03D34FF4F4
:103230008053FB8116E07B685B68B3F5805F0ED935
:103240007B685B685B08FB81FB8903F003039BB22F
:10325000002B07D0FB8923F00303FB8102E07B688E
:103260005B68FB81FB8918461037BD4680BD00BFF7
:10327000906A080090B591B004AF786039607868C2
:10328000FFF7C8FEB861BA691346DB009B1ADB0082
:10329000724A13447B617B691B7CDBB20233DB0027
:1032A0007A69134404333B613869FFF7B1FF034681
:1032B000FB810023FB620023BB600023BB62002371
:1032C0007B6204233B620423FB613B681B68012B88
:1032D0000BD13B691B68BB627B6803F562637B6251
:1032E00001233B620023FB610AE07B6803F5636313
:1032F000BB623B691B687B6200233B620123FB616D
:103300007B6901229A737B69002283F834203B6831
:103310001B793A6AD2B2F969C9B2F889039002916D
:10332000019200930123002200210120FFF77EFD7E
:10333000B8603B681869BB695B001B01484A1344CD
:1033400000937B6ABA6AB968FEF758FF7B695B7BBA
:10335000DBB21A467B690432F98923F812107B69C3
:103360005B7BDBB20133DBB203F00103DAB27B69D2
:103370005A733B695A68FB89D21A3B695A603B69A8
:103380001B681A46FB8913441A463B691A603B695D
:103390005B68002B0CD13B6900221A607B691B7CA7
:1033A000DBB20133DBB203F00303DAB27B691A74D8
:1033B0000023FB622AE0BB695A00FB6A13441B012D
:1033C000274A9C183B681B68012B03D07B6803F5D8
:1033D000636200E0234A3B681B68012B03D17B68D2
:1033E00003F5626300E0204BB9694800F96A0131D6
:1033F00001F00101014409011948014400911B49F0
:103400002046FEF7B9FDFB6A0133FB62FB6A012B24
:10341000D1D93B681B68012B04D10121786801F0E8
:1034200038FE03E00121786801F05BFE3B681B6910
:103430009A683B681B691B7B19461046FFF7D6FC50
:103440003B681B691846FEF71BFF786801F04EFDCC
:10345000002318463437BD4690BD00BF6899080068
:1034600010860800609908006499080003020100B2
:10347000B0B592B004AF7860396000237B6200235E
:1034800087F8233000237B6300233B630423FB6224
:103490000423BB627868FFF7BDFDF861FA69134643
:1034A000DB009B1ADB00694A1344BB61C2E0BB69C5
:1034B0001B7CDBB20233DB00BA69134404337B614B
:1034C000BB6993F8343087F823307B695B68002B45
:1034D00000F0B7803B681B68012B0BD17B691B6830
:1034E0007B637B6803F562633B630123FB6200231C
:1034F000BB620AE07B6803F563637B637B691B68DF
:103500003B630023FB620123BB62FB695B00BA697A
:10351000D27BD2B213441B014D4A13443B61BB69B9
:10352000DB7BDBB20133DBB203F00103DAB2BB6950
:10353000DA73FB695B00BA69D27BD2B213441B0118
:10354000434A1344FB607869FFF762FE03467B81C0
:10355000BB695B7BDBB21A46BB690432798923F80D
:103560001210BB695B7BDBB20133DBB203F00103FA
:10357000DAB2BB695A7397F82330002B14BF0123CA
:103580000023DBB283F00103DBB203F00103DCB202
:103590003B681B79FA6AD2B2B96AC9B2788997F8DE
:1035A000235003900291019200932B462246002162
:1035B0000120FFF73BFC7862FB6800933B6B7A6B62
:1035C000796A3869FEF7D8FCBB699B7BDBB20133B3
:1035D000DAB2BB699A73BB6993F83430DBB2002B63
:1035E00014BF01230023DBB283F00103DBB203F03D
:1035F0000103DAB2BB6983F834207B695A687B899E
:10360000D21A7B695A607B691A687B891A447B6984
:103610001A607B695B68002B0CD17B6900221A6001
:10362000BB691B7CDBB20133DBB203F00303DAB20C
:10363000BB691A74BB699B7BDBB2012B7FF637AF8A
:1036400000E000BF3837BD46B0BD00BF6899080034
:103650001086080080B483B000AF0346FB7197F971
:103660000730002B0BDBFB7903F01F02074997F9AA
:1036700007305B09012000FA02F241F8232000BF65
:103680000C37BD465DF8047B704700BF00E100E0E9
:1036900080B483B000AF0346FB7197F90730002B6D
:1036A0000DDB0A4A97F907305B0952F82320FB79B2
:1036B00003F01F0322FA03F303F0010300E00023E9
:1036C00018460C37BD465DF8047B704700E100E00A
:1036D00080B483B000AF0346FB7197F90730002B2D
:1036E00012DBFB7903F01F020A4997F907305B09E7
:1036F000012000FA02F2203341F82320BFF34F8F5C
:1037000000BFBFF36F8F00BF00BF0C37BD465DF831
:10371000047B704700E100E080B483B000AF034653
:10372000FB7197F90730002B0CDBFB7903F01F02CC
:10373000074997F907305B09012000FA02F260336C
:1037400041F8232000BF0C37BD465DF8047B70476D
:1037500000E100E080B400AF054B1B69044A43F070
:103760000403136100BFBD465DF8047B704700BFD2
:1037700000ED00E080B483B000AF7860044A7B685D
:10378000136000BF0C37BD465DF8047B704700BF77
:10379000907F080080B400AF00BF0C4B5B6803F063
:1037A0000103002BF9D1094BDB68084A43F0010300
:1037B000D36000BF054B5B6803F00103002BF9D118
:1037C00000BF00BFBD465DF8047B7047005013404A
:1037D00080B584B000AF786001F05AFDF860FFF763
:1037E000B9FF284BD3F800267B681B68DB4323F026
:1037F000414323F02E0323491343C1F80036214BE4
:10380000D3F804267B6804331B68D9431E4B0B4056
:103810001C491343C1F804361A4BD3F808267B68B9
:1038200008331B68DB4323F0404316491343C1F8B8
:103830000836144BD3F80C267B680C331B68DB432B
:1038400023F040430F491343C1F80C360D4BD3F816
:1038500000360C4A43F00803C2F800360B4B7322C3
:103860009A624FF4C061022001F033FD074B074A12
:103870009B68936030BFF86801F01BFD00BF1037F4
:10388000BD4680BD00200040FF0F009F0050134048
:1038900080B586B000AF0346FB80FB881B0A9BB255
:1038A0007B61FB88DBB23B6101223B6902FA03F3D7
:1038B000FB603B691F2B02D93148FCF7A5FC7B69F3
:1038C000052B57D801A252F823F000BFE5380800B5
:1038D000FF38080019390800333908004939080051
:1038E0005F3908004FF08042FB68136400BF4FF05F
:1038F00080431A69FB681340002BF8D03BE04FF07F
:103900008042FB68536400BF4FF080435A69FB68F4
:103910001340002BF8D02EE04FF08042FB689364F8
:1039200000BF4FF080439A69FB681340002BF8D02A
:1039300021E0144AFB68136400BF124B1A69FB684C
:103940001340002BF9D016E00E4AFB68536400BF09
:103950000C4B5A69FB681340002BF9D00BE0094A65
:10396000FB68936400BF074B9A69FB681340002B08
:10397000F9D000E000BF00BF1837BD4680BD00BFD2
:10398000B86A08000000024080B586B000AF034668
:10399000FB80FB881B0A9BB27B61FB88DBB23B612F
:1039A00001223B6902FA03F3FB603B691F2B02D93A
:1039B0003448FCF729FC7B69052B5DD801A252F83D
:1039C00023F000BFDD390800F9390800153A080076
:1039D000313A0800493A0800613A08004FF0804245
:1039E000FB68136700BF4FF080431A69FB68134000
:1039F000FA689A42F7D040E04FF08042FB68536784
:103A000000BF4FF080435A69FB681340FA689A423E
:103A1000F7D032E04FF08042FB68936700BF4FF071
:103A200080439A69FB681340FA689A42F7D024E011
:103A3000154AFB68136700BF134B1A69FB681340F4
:103A4000FA689A42F8D018E00F4AFB68536700BF43
:103A50000D4B5A69FB681340FA689A42F8D00CE0A3
:103A6000094AFB68936700BF074B9A69FB681340DC
:103A7000FA689A42F8D000E000BF00BF1837BD4690
:103A800080BD00BFD86A08000000024080B586B043
:103A900000AFF860B9607A60FB68002B05D0BB68A6
:103AA000002B02D07B68002B02D16A48FCF7ACFBEC
:103AB000FB68002B05D0BB68002B02D07B68002B75
:103AC00001D10423C1E00121F868FEF791FD78617E
:103AD0007B69002B01D07B69B7E0BB685B7A002B68
:103AE00023D0FB68D3F8003E43F00112FB68C3F813
:103AF000002EFB68D3F8083E23F47062FB68C3F81D
:103B0000082EFB68D3F8082EBB685B7B1B0203F40E
:103B100070631A43FB68C3F8082EFB68D3F8083EAD
:103B200043F00102FB68C3F8082EBB681B7A002B28
:103B300023D0FB68D3F8003E43F00212FB68C3F8C1
:103B4000002EFB68D3F8083E23F47022FB68C3F80C
:103B5000082EFB68D3F8082EBB689B7B1B0403F47C
:103B600070231A43FB68C3F8082EFB68D3F8083E9D
:103B700043F00202FB68C3F8082EBB681B791B01E7
:103B800003F03002BB685B799B0103F040031A43EA
:103B9000BB689B799B0003F00C031A43BB68DB797D
:103BA000DB039BB21A43BB68DB7B5B08DBB2DB0247
:103BB00003F400631A43BB68DB7B9B0303F480437D
:103BC0001A43BB681B7C1B0303F480531A43BB6876
:103BD000DB7ADB01DBB21A43BB681B7B5B0203F4BD
:103BE0000073134343F00102FB681A60BB68DB7A81
:103BF000002B16D0BB681B684FF41652B2FBF3F1D2
:103C000001FB03F3D31A002B08D1BB681B684FF4E8
:103C10001652B2FBF3F2FB681A620FE041F25163F5
:103C200013E0BB681B687A681946F86800F054F81E
:103C300078617B69002B01D07B6906E0BB689B7AC9
:103C40001946F86801F07DFB002318461837BD4679
:103C500080BD00BFF86A080080B582B000AF786010
:103C60007B68002B02D11B48FCF7CEFA14220021FE
:103C7000786801F065FD7B684FF4E1321A607B687B
:103C800000221A717B6800225A717B6801229A71A6
:103C90007B680022DA717B6800221A727B6800223E
:103CA0005A727B680022DA727B6800225A737B6842
:103CB00000229A737B680022DA737B6800229A7272
:103CC0007B6800221A747B6800221A7300BF0837D1
:103CD000BD4680BD486B080080B58CB000AFF86071
:103CE000B9607A604FF0FF33FB620F23BB624FF085
:103CF000FF337B62FB68002B05D0BB68002B02D032
:103D00007B68002B02D15448FCF77EFAFB68002B3D
:103D100005D0BB68002B02D07B68002B01D10423A7
:103D200095E0FB681B6803F40063002B10D0FB6870
:103D30001B6803F48043002B00F088807A68BB681E
:103D4000B2FBF3F3BB61BB695A1EFB681A627DE0EC
:103D5000BB68424AA2FB03235A0913465B00134483
:103D6000FB61BB6A3B6242E03B6A082B03D8FA6AFC
:103D7000FB699A423FD97A6813469B0013445B0063
:103D800019463B6A0133BA6802FB03F3B1FBF3F354
:103D9000053B334AA2FB0323DB08BB61BB69B3F5D8
:103DA000803F20D23B6A0133BA69013202FB03F340
:103DB0007A68B2FBF3F37B61BA687B699A4203D2FB
:103DC0007A69BB68D31A02E0BA687B69D31A3B618F
:103DD0003A69FB6A9A4207D23B69FB623B6ABB6263
:103DE000BB697B6200E000BF3B6A013B3B623B6A10
:103DF000032BB9D800E000BFBB6A01337A6A0132F5
:103E000002FB03F37A68B2FBF3F37B61BA687B6968
:103E10009A4203D27A69BB68D31A02E0BA687B6916
:103E2000D31A3B613A69FB699A4202D941F2516364
:103E30000DE07B6AB3F5803F02D341F2516306E0A7
:103E4000FB68BA6A9A62FB687A6A1A6200231846AB
:103E50003037BD4680BD00BF6C6B08001F85EB513D
:103E6000CDCCCCCC80B584B000AFF860B9607A60BE
:103E7000FB68002B02D0BB68002B02D11B48FCF76B
:103E8000C3F9FB68002B02D0BB68002B01D10423CF
:103E900027E0FB68D3F8003E03F00103002B15D1A7
:103EA00004231EE000BFFB68D3F8043E03F02003A8
:103EB000002BF8D0BB681B781A46FB68C3F8202E8D
:103EC000BB680133BB607B68013B7B607B68002B78
:103ED000E8D100BFFB689B6803F00803002BF9D012
:103EE000002318461037BD4680BD00BFC06B0800D8
:103EF00080B586B000AFF860B9607A6000237B615E
:103F0000FB68002B02D0BB68002B02D13848FCF7BD
:103F10007BF9FB68002B02D0BB68002B01D1042386
:103F200061E0FB68D3F8003E03F00203002B54D19C
:103F3000012358E000BFFB68D3F8043E03F04003C0
:103F4000002BF8D0FB68D3F8043E03F00203002BEB
:103F500013D0FB68D3F8003E43F40032FB68C3F88B
:103F6000002EFB68D3F8043E43F00202FB68C3F85E
:103F7000042E41F24D637B6134E0FB689B683B613A
:103F8000FB689A683B691A43FB689A603B6903F4D3
:103F90008043002B02D041F250637B613B6903F404
:103FA0000053002B02D041F24F637B613B6903F465
:103FB0000043002B02D041F24E637B617B69002BF2
:103FC0000FD1FB68D3F8303EDAB2BB681A70BB6819
:103FD0000133BB607B68013B7B607B68002BA9D110
:103FE00000E000BF7B6918461837BD4680BD00BFA2
:103FF000F86B080080B588B000AF786039607B68E6
:10400000002B02D13A48FCF7FFF83B68002B02D1A5
:104010003848FCF7F9F83B689B7B072B02D93648F8
:10402000FCF7F2F83B689B7B1A46344B53F822307E
:10403000002B02D13248FCF7E7F807F108031846D5
:10404000FFF70AFE3B685B68BB603B681B7B002B8D
:1040500003D13B685B7B002B01D001233B753B68A0
:104060001B7A022B02D102233B7308E03B681B7AC8
:10407000032B02D103233B7301E000233B733B6816
:104080005B7A012B02D101237B7301E000237B7358
:104090003B689B7A002B14BF01230023DBB23B74E7
:1040A0003B68DB7A002B14BF01230023DBB27B7457
:1040B00000237B750023BB753B689B7B1A460F4B27
:1040C00053F822003B681A6807F108031946FFF706
:1040D000DDFCF861FB69002B04D0F86901F04DF9B3
:1040E000034600E0002318462037BD4680BD00BFD0
:1040F000506C0800746C0800986C0800306C080064
:10410000FC6C080080B586B000AFF860B9607A60DA
:10411000FB68002B02D11248FCF776F8BB68002B35
:1041200002D11048FCF770F87B68002B02D10E48D2
:10413000FCF76AF8FB687B617B691B781A460B4BBE
:1041400053F822307A68B9681846FFF7D1FE386113
:10415000386901F012F9034618461837BD4680BD8C
:104160003C6D0800606D0800806D0800306C080030
:1041700080B586B000AFF860B9607A60FB68002B4C
:1041800002D11048FCF740F8BB68002B02D10E4862
:10419000FCF73AF87B68002B02D10C48FCF734F8A6
:1041A000FB687B617B691B781A46094B53F8223008
:1041B0007A68B9681846FFF755FE00231846183785
:1041C000BD4680BDA46D0800C86D0800E86D0800FC
:1041D000306C080080B582B000AF0C4B1B683B60B0
:1041E0003B461846FDF79CF9094800F024FC0020E6
:1041F000FDF73CF978607B6801224FF4E131002043
:10420000FCF70EF800BF0837BD4680BD0C6E0800F5
:104210000845008080B483B000AF7860044A7B68B2
:10422000136000BF0C37BD465DF8047B704700BFCC
:10423000F497080080B483B000AF78607B68DAB28E
:104240007B681B0A9900064B0B44194601239340D7
:104250000B6000BF0C37BD465DF8047B704700BFA4
:104260003026004080B500AF0E20FFF7E3FF10209E
:10427000FFF7E0FF0020FDF7B9F90F20FFF7DAFFA5
:10428000FDF74EFA01F0A5F8214800F0D4FB0D200F
:10429000FFF7D0FF4FF48270FFF76CFA4FF4827291
:1042A00001210120FDF79EFC1A48FFF7B3FF1A48D1
:1042B000FDF778FA13210020FDF73AFB18210220C0
:1042C000FDF736FB1548FDF77DFB1A210020FDF7B1
:1042D0003FFC02214FF4806000F0F2FB42F23440D8
:1042E00000F0A9FB0F210E4800F0EAFB02214FF479
:1042F000A06000F0E5FB0C210A4800F0E1FB092179
:10430000012003F055FC084B084A1A6000BF80BD2D
:104310003034340400366E01306E0800406E080000
:1043200040020080FC060080E47F0800AF4DE80EEC
:1043300080B400AF074BD3F86831002B04D0054B95
:10434000D3F86831002300E0034B1846BD465DF802
:10435000047B70470010004000366E0180B483B0CB
:1043600000AF00237B600D4BD3F8003103F44023F2
:10437000002B03D0B3F5402F03D005E0084B7B6042
:1043800005E0084B7B6002E000237B6000BF7B6898
:1043900018460C37BD465DF8047B7047001000409E
:1043A000006CDC020087930380B500AF2D4BD3F87F
:1043B00088302C4A43F47003C2F88830294BD3F874
:1043C0008830284A43F00F03C2F88830254BD3F8D1
:1043D0008C30244A43F4406343F00303C2F88C302A
:1043E000214B0122DA60214BB3F1006F03D31F4B45
:1043F000B3F1805F07D31D4BB3F1C05F2DD31B4BCF
:10440000B3F1005F29D21A4BDB69002B25D1184B81
:104410004FF0A062C3F80028154BD3F80038144AB7
:1044200043F00043C2F8003800BF114BD3F8003806
:10443000002BFADB0E4B0322C3F800280C4B0D4A6D
:104440005A610B4B00229A61094B0122DA61BFF3DA
:104450006F8F00BFBFF34F8F00BF01F061F900BF46
:1044600080BD00BF00ED00E000200040794408005E
:104470000030034000FCFF072DE9B04F90B000AFC3
:104480000023FB634FF000024FF00003C7E90C2349
:10449000764BD3F8343403F00303032B00F2D380BC
:1044A00001A252F823F000BFB944080007450800F4
:1044B0000D4508003F4608006C4BD3F8303403F03C
:1044C0000303032B1BD801A252F823F0DD4408009C
:1044D000E9440800F1440800F7440800FFF73EFFF4
:1044E00003469B08FB630DE0FFF722FFF86309E03A
:1044F0005F4BFB6306E0FFF731FFF86302E0002348
:10450000FB6300BFA2E05B4BFB639FE0574BD3F81C
:10451000003203F00703022B0DD0022B11D8002B21
:1045200002D0012B03D00CE0524BFB630CE0FFF7F1
:10453000FFFEF86308E0FFF711FF03465B08FB632B
:1045400002E00023FB6300BF484BD3F8043203F0C2
:104550000103002B69D1FB6B0022BB62FA62434B63
:10456000D3F8103200229A469346D7E90A010B4647
:104570000AFB03F2034603FB0BF313440246A2FBC0
:104580000A894B449946394BD3F8143200223B62D6
:104590007A62D7E908234046494601F001FA02460B
:1045A0000B46C7E90C23314BD3F804321B0CDAB2AB
:1045B000FB6B02FB03F3FB633B6BFA6B1344FB6384
:1045C000FB6B0022BB61FA61D7E9068942464B4684
:1045D0004FF000004FF00001D90041EA5271D000C5
:1045E00002460B4641465418494643EB01010D462D
:1045F00023193B6045EB05037B60D7E90045204666
:1046000029461A4BD3F8183200223B617A613B6984
:1046100003F03F03BB600023FB60D7E9022301F0F6
:10462000BFF902460B461346FB63104BD3F84032EA
:10463000DBB20133FA6BB2FBF3F3FB6306E04FF43A
:104640000043FB6302E00023FB6300BF074BD3F88A
:104650000034DBB20133FA6BB2FBF3F3064A1360AA
:1046600000BF4037BD46BDE8B08F00BF001000401E
:1046700040420F000024F400E47F080010B5174A00
:104680001749002001F0D9F84FF480734FF480628D
:104690000021124801F06EF8124A1349012001F07E
:1046A000CCF84FF480734FF4806200210D4801F084
:1046B00061F80E4B1B68022B0EDD0D4A0A490220E1
:1046C00001F0BBF8BDE810404FF480734FF48062F6
:1046D0000021074801F04EB810BD00BF2C9B080018
:1046E000546E0800689B0800566E0800506E080063
:1046F000A49B08002DE9F041D5688046EB020E46E8
:104700001446576905D5384601F03BFA45F01005C7
:10471000A061124B2B408BB13846A16901F03AFAE7
:10472000002806DAE3684FF0FF3043F08003E360CF
:1047300011E025F4003525F01005E56032464146CC
:10474000384601F02DFA20F00041761AA1690E4496
:10475000A6610028E6D1BDE8F08100BF100002008C
:10476000F8B5044638B905460A4B0B4E1F68A742F8
:1047700005DC2846F8BDBDE8F84001F0F1B8304648
:1047800001F0EEF8002818BF4FF0FF3501343C3639
:10479000EDE700BF506E08002C9B08002DE9F843A0
:1047A000C6683C4B044633400D4690461BB9022771
:1047B0003846BDE8F883D0F81490484601F0E4F993
:1047C00007460028F3D1B8F1010F2CD0B8F1020F41
:1047D0002ED0B8F1000FEAD1002DE8DBB00404D5EB
:1047E0002368E26A9A4238BFE362A169A9420EDCFB
:1047F0002368E26A934238BF134622695818801A28
:10480000A84204DB206B01EB000CAC4531DC00233B
:10481000C4E9013346F02006A56226F4032626F0FB
:104820004006E660C4E7204600F036F80544D3E7CA
:10483000484601F0A6F9B0F1000CE26804DA42F053
:1048400080020127E260B3E72168A369E06A814240
:104850002CBF5B181B1821699206A3EB010303D53B
:10486000A26A9342B8BF13466345ACBFED186544D6
:10487000B2E76D1AB10744BF281AA060F10744BF20
:104880009B1AEB1A154448BF6360256026F020068A
:10489000C3E700BF03001000C3689A0705D12122B7
:1048A0000D4B4FF0FF301A60704703F020021B03DE
:1048B00009D512B1806A01387047036882690069BE
:1048C0001344181AF7E70AB1806A704703688269CF
:1048D00000691344181A7047289B08000FB480B56C
:1048E00082B000AF00237B6007F114033B6039689E
:1048F0003869FBF7D9FC78607B6818460837BD46F5
:10490000BDE8804004B0704780B586B000AFB960A4
:104910007A603B600346FB73BB687B610BE0FA7B0C
:104920003B6A104698473B681B685A1C3B681A60F4
:104930007B6901337B617A697B689A42EFDB00BF58
:1049400000BF1837BD4680BD80B48FB000AFF8609F
:10495000B9607A603B600023FB62FB68BB62BB6AA4
:104960005A1CBA6200221A7000237B6000237B620B
:1049700000233B620023FB6100237B630023BB61B8
:1049800000233B6300237B61BB681B687B637B6BFD
:10499000002B30D1BB6A30221A70FB6A0133FB62F4
:1049A000FB6A2CE03B687A6BB2FBF3F3BB613B68BC
:1049B000BA6902FB03F37A6BD31A3B633B6B092B97
:1049C00003D83B6B30333B630AE097F84030002B51
:1049D00001D0412200E061223B6B13440A3B3B6360
:1049E000BB697B63BB6A5A1CBA623A6BD2B21A705B
:1049F000FB6A0133FB627B6B002BD3D1FB6A184649
:104A00003C37BD465DF8047B704704207146084280
:104A100002D0EFF3098001E0EFF3088081690A8892
:104A20004BF6AB639A4200D0FEE702318161202150
:104A30000160704700BF80B487B000AF786000238A
:104A4000FB7500233B612CE03B691B017A6822FA6D
:104A500003F37B607B6803F08023002B08D07B6826
:104A6000C3F30B0303F1804303F50433FB6007E05A
:104A70007B68C3F30B0303F1804303F58053FB60B2
:104A80007B68C3F30B03002B06D07B681B0B03F082
:104A90000702FB681A6001E00123FB753B690133E3
:104AA0003B613B69012B05D8FB7D83F00103DBB241
:104AB000002BC9D100BF1C37BD465DF8047B704791
:104AC00080B485B000AF786039607B68002B08DA6D
:104AD0007B68C3F30B0303F1804303F50433FB60EE
:104AE00007E07B68C3F30B0303F1804303F58053B6
:104AF000FB60FB681B6843F00052FB681A603B6870
:104B0000002B06D1FB681B6843F08042FB681A60EB
:104B100008E03B685A1EFB681A6000BFFB681B6810
:104B2000002BFBDB00BF1437BD465DF8047B7047EC
:104B300080B483B000AF78607B681846A0F10100B4
:104B40000028FBD100BF0C37BD465DF8047B7047E1
:104B500080B584B000AF0346FB710023FB6097F97A
:104B6000073013F1800F02D10123FB6004E097F9B5
:104B700007301846FDF7AAF8FB6818461037BD46FF
:104B800080BD80B586B000AF786000237B610023D4
:104B9000FB6000233B617868FDF794F9F86000231F
:104BA0003B6105E07B6921337B613B6901333B61FC
:104BB0003A69FB689A42F5D37B6918461837BD46B7
:104BC00080BD80B483B000AF78600B46FB70FB788B
:104BD000002B01D1012320E0FB78042B0ED87B6849
:104BE000D3F8F82FFB78033322FA03F303F0010321
:104BF000002B14BF01230023DBB20EE0FB78052B52
:104C00000AD17B68D3F8F83F03F08003002B14BF70
:104C100001230023DBB200E0002318460C37BD4619
:104C20005DF8047B704780B584B000AFF8600B4638
:104C30007A60FB72FB7A1946F868FFF7C2FF0346F9
:104C400083F00103DBB2002B01D0032321E0FB68DA
:104C5000D3F8F83F03F00803002B09D0FB68D3F822
:104C6000F83F03F00702FB7A9A4201D0012310E0DB
:104C70007B68002B08D0FB7A43F00803DBB21A46AE
:104C8000FB68C3F8F82F03E0FA7AFB68C3F8F82F43
:104C9000002318461037BD4680BD80B584B000AFF4
:104CA000F860B9607A603B60B968F868FDF700FFAA
:104CB0003B681B78002B0AD101227B6802FA03F1C2
:104CC000FB68BA6802F5106243F8221022E03B68E4
:104CD0005B78002B0AD101227B6802FA03F1FB68A2
:104CE000BA6802F50A6243F8221009E001227B68E3
:104CF00002FA03F1FB68BA6802F5086243F8221071
:104D000001227B6802FA03F1FB68BA6802F50E62C1
:104D100043F8221000BF1037BD4680BD80B584B077
:104D200000AF786039600023FB600023BB60042182
:104D30007868FDF75DFC39687868FDF72BFFFB6844
:104D400043F00103FB60FB6843F48033FB603B6886
:104D50005B7C9B0003F00403FA681343FB603B6831
:104D60009B7CDB0003F00803FA681343FB60BB681D
:104D700043F00103BB603B681B7C1B0203F47063C0
:104D8000BA681343BB607B68FA68C3F8002E7B687F
:104D9000BA68C3F8082E00BF1037BD4680BD80B585
:104DA00084B000AF786039600023FB600023BB60F3
:104DB00005217868FDF71CFC39687868FDF7EAFE84
:104DC000FB6843F00203FB60FB6843F40033FB60C5
:104DD0003B689B7CDB0003F00803FA681343FB602D
:104DE000BB6843F00203BB603B681B7C1B0403F4FD
:104DF0007023BA681343BB607B68FA68C3F8002E5F
:104E00007B68BA68C3F8082E00BF1037BD4680BD66
:104E100080B483B000AF78607B6803221A707B682F
:104E200000225A707B6800229A707B680022DA7038
:104E30007B6800221A717B6800225A717B6800220D
:104E40009A717B6801221A817B6800229A727B68C2
:104E50001022DA727B6820229A817B680022DA8134
:104E60007B6804221A747B6801225A747B680022D2
:104E70009A7400BF0C37BD465DF8047B704780B460
:104E800083B000AF78607B6800221A707B680022D4
:104E90005A707B6800229A707B680022DA707B6807
:104EA00000221A717B6800225A717B6800229A7175
:104EB0007B6801221A817B6800229A727B6810222B
:104EC000DA727B6820229A817B680022DA817B6813
:104ED00004221A747B6800225A747B6800229A7438
:104EE00000BF0C37BD465DF8047B704780B483B0CB
:104EF00000AF78607B68D3F8003C43F001027B6828
:104F0000C3F8002C00BF0C37BD465DF8047B70472A
:104F100080B483B000AF78607B68D3F8003C23F0A6
:104F200001027B68C3F8002C00BF0C37BD465DF85A
:104F3000047B704780B582B000AF78607B681B69E6
:104F40009A687B681B691B7B19461046FDF722FF98
:104F500000BF0837BD4680BD80B582B000AF786025
:104F60007B681B68002B09D07B681B699A687B688B
:104F70001B691B7B19461046FDF7E0FE00BF083792
:104F8000BD4680BD80B586B000AFF860B9603946D7
:104F900081E80C00B868FFF7CDFF3B460CCBB96841
:104FA000F868FDF79DFF78617B69002B04D0B86835
:104FB000FFF7D2FF7B691BE0BB681B68002B0FD19A
:104FC000BB6801221A60B968F868FEF753F9786186
:104FD0007B69002B04D0B868FFF7BEFF7B6907E050
:104FE000B968F868FEF744FAB868FFF7B5FF002320
:104FF00018461837BD4680BD80B586B002AFF86050
:10500000B9607A603B60BB6900933B687A68B968B5
:10501000F868FEF721F800BF1037BD4680BD80B5A7
:1050200086B000AFF860B960394681E80C00B86816
:10503000FFF780FF3B460CCBB968F868FDF750FFDF
:1050400078617B69002B04D0B868FFF785FF7B6926
:105050001BE0BB681B68002B0FD1BB6802221A60E3
:10506000B968F868FEF706F978617B69002B04D00F
:10507000B868FFF771FF7B6907E0B968F868FEF769
:10508000F7F9B868FFF768FF002318461837BD46E0
:1050900080BD80B483B000AF78600B46FB70FB78B6
:1050A000002B08D07B68D3F8003E43F480527B6825
:1050B000C3F8002E0FE07B68D3F8003E23F4805243
:1050C0007B68C3F8002E7B68D3F8003E43F480323F
:1050D0007B68C3F8002E00BF0C37BD465DF8047B2B
:1050E000704780B483B000AF78600B46FB70FB78EC
:1050F000002B08D07B68D3F8003E43F400527B6855
:10510000C3F8002E0FE07B68D3F8003E23F4005272
:105110007B68C3F8002E7B68D3F8003E43F400326E
:105120007B68C3F8002E00BF0C37BD465DF8047BDA
:10513000704790B58BB000AFF860B9603B60134624
:10514000FB71BB687B627B6A5B683B627B6A1B6846
:10515000FB613B6A93F83530FB767B6A1B7BDBB2E5
:105160001A467B6A043233F812309BB27B61FB7EB5
:105170003A6A0233DB0013445B683B61FB7983F0DE
:105180000103DBB2002B7FD13B6A1B68002B7BD075
:105190007B6A9B7BDBB2002B31D0FB7E3A6A023309
:1051A000DB0013449968FB7E7A698A1A396A0233F4
:1051B000DB000B449A603A697B691A44FB7E114616
:1051C0003A6A0233DB00134459607B6A1B7BDBB213
:1051D0001A467B6A0432002123F812107B6A1B7B7B
:1051E000DBB20133DBB203F00103DAB27B6A1A737C
:1051F0007B6A9B7BDBB2013BDAB27B6A9A73FB7EF4
:105200003A6A0233DB0013449B68002B1CD1FB7EFF
:105210003A6A0233DB00134400225A60FB7E0133FA
:10522000DBB203F00303DAB23B6A83F835203B6A52
:105230009B68002B08D03B6A9C683B6ADB6840F6A1
:105240008C22396AF869A0473B6A1B68032B1CD083
:105250003B6A93F83530DBB23A6A0233DB00134421
:105260009B68002B0BD13B6A1B68012B02D1F869AC
:10527000FDF74EFC396AF869FDF756FF05E0396A1B
:10528000F869FEF7F5F800E000BF2C37BD4690BD89
:1052900080B483B000AFEFF310833B603B687B606A
:1052A00072B600BF7B6818460C37BD465DF8047BBC
:1052B000704780B485B000AF78607B68FB60FB68A6
:1052C00083F3108800BF00BF1437BD465DF8047B30
:1052D000704780B483B000AF78600B467B8072B6B5
:1052E00000BF7B88C3F30B0303F1804303F5005336
:1052F0001B6823F006017B685A007B88C3F30B030D
:1053000003F1804303F50053184641EA02030360AA
:1053100062B600BF00BF0C37BD465DF8047B704726
:1053200080B582B000AF0346FB80FB881846FEF7CD
:10533000AFFAFB881846FEF727FB00BF0837BD46CB
:1053400080BD80B483B000AF78600B46FB70FB7803
:10535000002B06D07B685B6843F480727B685A60E0
:1053600005E07B685B6823F480727B685A6000BF4D
:105370000C37BD465DF8047B704780B483B000AF46
:1053800078607B68002B01D1002301E042F6AF7307
:1053900018460C37BD465DF8047B704780B584B075
:1053A00000AF7860396039687868FEF723FE0346FD
:1053B000FB81FB89002B01D0FB8906E07B68BB6089
:1053C0003B689A7BBB681A70002318461037BD46AD
:1053D00080BD80B500AF0121032002F0E9FB00BFD2
:1053E00080BD80B500AFFEF73DFF00BF80BD80B43B
:1053F00085B000AFF8607B600B46FB721346BB7252
:10540000F97ABA7AFB6849010A44796843F82210AC
:1054100000BF1437BD465DF8047B704780B500AF10
:1054200000F006F800F06CF800F083F800BF80BDD3
:1054300080B58AB000AF40F241137B627B6A0E22D6
:1054400000214FF04020FFF7D2FF40F241133B62B2
:105450003B6A0F2200214FF04020FFF7C8FF0123D5
:10546000FB61FB69102200214FF04020FFF7BFFFD6
:1054700040F24113BB61BB69072200214FF040207D
:10548000FFF7B5FF40F241137B617B6908220021E1
:105490004FF04020FFF7ABFF40F241133B613B6907
:1054A000092200214FF04020FFF7A1FF3023FB60CD
:1054B000FB68002201214FF04020FFF798FF40F2E7
:1054C0000113BB60BB680A2201214FF04020FFF7A7
:1054D0008EFF71237B607B68032204214FF0402004
:1054E000FFF785FF40F271433B603B6804220421D3
:1054F0004FF04020FFF77BFF00BF2837BD4680BD3F
:1055000080B582B000AF01237B607B68012200215F
:105510004FF04020FFF76BFF41233B603B680222C6
:1055200000214FF04020FFF762FF00BF0837BD4663
:1055300080BD80B400AF00BFBD465DF8047B7047FE
:1055400008B5FAF75FFE08BD08B5FCF7BBFF08BD5C
:1055500008B5FAF757FE08BD08B5FAF753FE08BDBF
:1055600008B5FAF74FFE08BD08B5FAF74BFE08BDBF
:1055700008B5FAF747FE08BD08B5FAF743FE08BDBF
:1055800008B5FAF73FFE08BD08B5FAF73BFE08BDBF
:1055900008B5FAF737FE08BD08B5FAF733FE08BDBF
:1055A00008B5FAF72FFE08BD08B5FAF72BFE08BDBF
:1055B00008B5FDF745F808BD08B5FDF76FF808BD5B
:1055C00008B5FDF799F808BD08B5FDF7C3F808BDA3
:1055D00008B5FDF7EDF808BD08B5FDF717F908BDEA
:1055E00008B5FDF79DF908BD08B5FDF7C7F908BD79
:1055F00008B5FAF707FE08BD08B5FAF703FE08BDBF
:1056000008B5FAF7FFFD08BD08B5FAF7FBFD08BDC0
:1056100008B5FAF7F7FD08BD08B5FAF7F3FD08BDC0
:1056200008B5FAF7EFFD08BD08B5FAF7EBFD08BDC0
:1056300008B5FAF7E7FD08BD08B5FAF7E3FD08BDC0
:1056400008B5FAF7DFFD08BD08B5FAF7DBFD08BDC0
:1056500008B5FAF7D7FD08BD08B5FAF7D3FD08BDC0
:1056600008B5FAF7CFFD08BD08B5FAF7CBFD08BDC0
:1056700008B5FAF7C7FD08BD08B5FAF7C3FD08BDC0
:1056800008B5FAF7BFFD08BD08B5FAF7BBFD08BDC0
:1056900008B5FDF7A1F908BD08B5FDF7E5F808BDA7
:1056A00008B5FDF70FF908BD08B5FAF7ABFD08BD61
:1056B00008B5FAF7A7FD08BD08B5FAF7A3FD08BDC0
:1056C00008B5FAF79FFD08BD08B5FAF79BFD08BDC0
:1056D00008B5FAF797FD08BD08B5FAF793FD08BDC0
:1056E00008B5FAF78FFD08BD08B5FAF78BFD08BDC0
:1056F00008B5FCF7F1FE08BD08B5FAF783FD08BD53
:1057000008B5FAF77FFD08BD08B5FAF77BFD08BDBF
:1057100008B5FAF777FD08BD08B5FAF773FD08BDBF
:1057200080B400AF00BFBD465DF8047B704708B58C
:10573000FEF7A4FFBDE80840FBF7B0B800F0EBB9F6
:1057400000F003BAA8B14FF0805340F80C3C50F879
:10575000042C72B11368B3F1805F0AD150F8083C91
:10576000516803330B4440F8083C936840F8043C0C
:10577000EDE7704770B5C468A50708D0B2F5007FA3
:1057800011D0B2F5806F04D0B2F5807F0BD001202C
:1057900008E0012300F12401224301610160C3619B
:1057A000C260002070BD6FF07F455E1EAE42F3D335
:1057B000EDE710B5431C8207044614D1204654F887
:1057C000042BA2F1013121EA020111F0803FF5D052
:1057D000D1B281B112F47F4F0BD012F47F0F14BFFE
:1057E0002046033003E010F8012B002AE3D1C01A51
:1057F00010BD0230FBE70130F9E7C36810B523F0B4
:1058000020038269C360836A04469A420ED000F086
:1058100048F8E36823F4405323F0100343F01003E7
:10582000E360A36AA3612369E3622360E36823F46E
:10583000804323F04003E36010BD70B50D4606467B
:105840001046144600F056F82B78722B17D0772BA1
:1058500018D0612B23D1082348F2020215F8011F4A
:105860002B2912D0622915D01B07E260666104D58E
:10587000022200212046FEF791FF204670BD002342
:105880000122EBE704230222E8E742F0030243F09F
:105890000203E3E742F0040243F00103DEE70024E1
:1058A000EBE738B5044605690168C36AC06820F4AF
:1058B0000022E26000F08202022A02D04FF0FF30A4
:1058C00038BD10F48030FBD0994238BF19468D4264
:1058D00008D10020E368E56223F480332560A060EE
:1058E000E360EDE722462846491BFEF703FF002848
:1058F000EFD0E3E7F0B5C4680546A10789B022D030
:10590000220718D4D0E90467FEF72AFF384600F0D2
:1059100035F9230502D53046FFF714FFA40DA40581
:1059200014F1A54F07D120226846296A00F035F905
:10593000684600F00BF83C2200212846FFF700FFE4
:10594000002009B0F0BD4FF0FF30FAE710B5044673
:10595000FFF72FFF01462046BDE8104000F017B9C1
:10596000C36870B513F00306044611D09B0611D529
:10597000856AFFF742FFE368204623F44053E36063
:10598000FFF78FFF0022064629462046FEF706FF56
:10599000304670BD816905680D4401696D1AEAE7FA
:1059A0005FF0000C30B51C0022D112006FD0914284
:1059B00006D305460846002100F06FF80446284645
:1059C00000F06BF80A462146BDE830401CF0404F1D
:1059D00008BF704703D54942404261F100015FEAC8
:1059E0008C0C38BF70475B42524263F10003704732
:1059F00042D41C0C04BF1B040CF1100C13F07F4F9D
:105A000004BF1B020CF1080C13F0704F04BF1B0104
:105A10000CF1040C13F0404F04BF0CF1020C5FEAD0
:105A200083035CBF0CF1010C5B00CCF1200E22FA69
:105A30000EF4234302FA0CF200FA0CF520FA0EF0F1
:105A400001FA0CF4204321FA0EF114461A4600F034
:105A500024F8A4FB0023AA1A71EB03033CBF1B1913
:105A60000138CCF1200E22FA0CF203FA0EF4224394
:105A700023FA0CF30021A7E7821A71EB03033CBF62
:105A800002460B464FF0000141F100009CE7002068
:105A90000021BDE8304000F03DB80423B1EB122FE7
:105AA00009D2090241EA10610002013B08BF7047B8
:105AB000B1EB122FF5D30018494134BF9142891A36
:105AC0004041494134BF9142891A4041494134BF64
:105AD0009142891A4041494134BF9142891A40415B
