:020000040800F2
:1000000000000000000000000000000000000000F0
:1000100000000000000000000000000000000000E0
:1000200000000000000000000000000000000000D0
:1000300000000000000000000000000000000000C0
:10040000464346420004015600000000000303007A
:1004100000000000000000000000000000000000DC
:1004200000000000000000000000000000000000CC
:1004300000000000000000000000000000000000BC
:100440001000000001040100000000000000000096
:100450000000000000000000000000040000000098
:10046000000000000000000000000000000000008C
:10047000000000000000000000000000000000007C
:10048000EC04200A001E04320426000000000000D4
:10049000050404240000000000000000000000002B
:1004A000000000000000000000000000000000004C
:1004B0000604000000000000000000000000000032
:1004C000000000000000000000000000000000002C
:1004D00021042008000000000000000000000000CF
:1004E000000000000000000000000000000000000C
:1004F00000000000000000000000000000000000FC
:10050000DC042008000000000000000000000000E3
:100510003E04200A04220000000000000000000049
:1005200000000000000000000000000000000000CB
:100530006004000000000000000000000000000057
:1005400000000000000000000000000000000000AB
:10055000000000000000000000000000000000009B
:10056000000000000000000000000000000000008B
:10057000000000000000000000000000000000007B
:10058000000000000000000000000000000000006B
:10059000000000000000000000000000000000005B
:1005A000000000000000000000000000000000004B
:1005B000000000000000000000000000000000003B
:1005C0000001000000100000010000000000000019
:1005D000000001000000000000000000000000001A
:1005E000000000000000000000000000000000000B
:1005F00000000000000000000000000000000000FB
:1006000000000000000000000000000000000000EA
:1006100000000000000000000000000000000000DA
:101000000000200059110008F1110008CB6400080D
:10101000F5110008F7110008F9110008FB1100088C
:10102000309200000000000000000000FD110008E8
:10103000FF11000800100008011200080312000848
:10104000BD730008C5730008CD730008D573000890
:10105000DD730008E5730008ED730008F573000800
:10106000FD730008057400080D740008157400086D
:101070001D740008257400082D74000835740008DC
:101080003D740008457400084D740008557400084C
:101090005D740008657400086D74000875740008BC
:1010A0007D740008857400088D740008957400082C
:1010B0009D740008A5740008AD740008B57400089C
:1010C000BD740008C5740008CD740008D57400080C
:1010D000DD740008E5740008ED740008F57400087C
:1010E000FD740008057500080D75000815750008E9
:1010F0001D750008257500082D7500083575000858
:101100003D750008457500084D75000855750008C7
:101110005D750008657500086D7500087575000837
:101120007D750008857500088D75000895750008A7
:101130004890000800000800E811000048900008EE
:1011400000001440000000000014080054100000CB
:10115000000014400000000072B6134B134A1748F9
:101160000360196881F3088882F30A8804F07CFE22
:101170000F4B07E003F10C049A685968186800F0F7
:101180001FF823460B4A9342F4D306E01C465968E5
:1011900054F8080B00F023F82346074A9342F5D38E
:1011A00062B606F002FAFEE70010000800F01F0029
:1011B00030110008481100085811000808ED00E03F
:1011C000002393420AD210B450F8044B41F8044B68
:1011D00004339342F8D35DF8044B70477047002303
:1011E00003E0002240F8042B04338B42F9D370470C
:1011F000FEE7FEE7FEE7FEE7FEE7FEE7FEE7FEE7C7
:10120000FEE7FEE7FEE7FFFF80B582B000AF786043
:101210007968024805F0C2F800BEFDE7307A0008A0
:1012200080B58AB000AFB9607B600346FB7313469C
:10123000BB73BB7B012B01D001232AE0174ABB7B88
:1012400013747B687B61BB68BB6100233B77002321
:101250007B770123BB770123FB77002387F82030BE
:10126000002387F82130FB7B87F82230002387F8A2
:101270002330002387F8243007F114031946074868
:1012800005F002FF054B064A9A60044B054ADA60F6
:10129000002318462837BD4680BD00BF101B08003C
:1012A00061570008F556000880B584B000AF78603B
:1012B00039600023FB60094B1B7C002B02D14FF0EF
:1012C000FF3306E03A687968054800F023F8F860D3
:1012D000FB6818461037BD4680BD00BF101B0800D4
:1012E000E512000880B582B000AF7860084B1B7C27
:1012F000002B02D14FF0FF3306E0054B9B68391DF0
:10130000012203489847012318460837BD4680BD8F
:10131000101B080080B59CB002AFF860B9607A601D
:1013200000233B660023FB650023FB61002387F855
:101330004A3000237B61BB687B667B6E1B78002B89
:1013400000F0D2817B6E1B7887F8493097F84930DE
:10135000252B0BD097F84920FB6810469847FB696E
:101360000133FB617B6E01337B66BCE1012387F8AF
:101370004B3000237B65002387F85B3020E07B6ED9
:1013800001337B667B6E1B7887F8493097F84930CC
:101390002F2B0FD997F84930392B0BD87A6D13467C
:1013A0009B0013445B001A4697F849301344303BC6
:1013B0007B6505E07B6E013B7B66012387F85B3034
:1013C00097F85B3083F00103DBB2002BD7D17B6E43
:1013D00001337B667B6E1B782E2B2ED100233B6561
:1013E000002387F85B3020E07B6E01337B667B6EE9
:1013F0001B7887F8493097F849302F2B0FD997F889
:101400004930392B0BD83A6D13469B0013445B00CF
:101410001A4697F849301344303B3B6505E07B6E34
:10142000013B7B66012387F85B3097F85B3083F0E4
:101430000103DBB2002BD7D102E07B6E013B7B6660
:101440007B6E01337B667B6E1B7887F8493097F89B
:101450004930642B24D097F84930692B20D097F875
:101460004930662B1CD097F84930462B18D097F896
:101470004930782B14D097F84930582B10D097F872
:1014800049306F2B0CD097F84930622B08D097F871
:101490004930702B04D097F84930752B40F0DC8030
:1014A00097F84930642B03D097F84930692B15D150
:1014B0007B681A1D7A601B68BB6107F1180107F190
:1014C000200097F84B3000930A23012204F09CFF80
:1014D000F86507F12002FB6D13443B6697F849302D
:1014E000582B03D097F84930782B1CD197F8493006
:1014F000782B02D1002387F84B307B681A1D7A6065
:101500001B687B6107F1140107F1200097F84B304D
:1015100000931023002204F077FFF86507F1200202
:10152000FB6D13443B6697F849306F2B0BD097F84F
:101530004930622B07D097F84930702B03D097F8C9
:101540004930752B6AD197F84930702B0DD17B68E3
:101550001A1D7A601B683B6107F1100107F1140343
:101560000422184606F028F804E07B681A1D7A6009
:101570001B687B6197F84930623B132B3AD801A274
:1015800052F823F0DD150008F5150008F5150008E0
:10159000F5150008F5150008F5150008F515000803
:1015A000F5150008F5150008F5150008F5150008F3
:1015B000F5150008F5150008D5150008E515000813
:1015C000F5150008F5150008F5150008F5150008D3
:1015D000ED150008082387F84A300CE0022387F84D
:1015E0004A3008E0102387F84A3004E00A2387F8DD
:1015F0004A3000E000BF97F84A2007F1140107F1D4
:10160000200097F84B3000931346002204F0FCFEB4
:10161000F86507F12002FB6D13443B667A6D07F114
:101620001C01FB6800930B46F96D202004F0CCFEF2
:101630003B6E002B54D00AE03B6E5A1E3A661B7874
:101640001A46FB6810469847FB690133FB613B6E05
:101650001B78002BF0D143E097F84930632B0BD176
:101660007B681A1D7A601B687B64FB68786C9847FE
:10167000FB690133FB6133E097F84930732B27D1C5
:101680007B681A1D7A601B68FB64FB6C002B27D0FB
:10169000F86C05F0CCFF0346FB657A6D07F11C0181
:1016A000FB6800930B46F96D202004F08DFE0AE0E4
:1016B000FB6C5A1CFA641B781A46FB681046984764
:1016C000FB690133FB61FB6C1B78002BF0D107E059
:1016D00097F84920FB6810469847FB690133FB6186
:1016E0007B6E01337B6628E600BFFB6918466837CE
:1016F000BD4680BD80B584B000AF0346FB80FB884B
:101700001B0A9BB2FB60FB68052B3FD801A252F875
:1017100023F000BF2D1700083D1700084D170008E3
:101720005D1700086D1700087D170008FB88DBB205
:101730001A4A012101FA03F313642AE0FB88DBB2A1
:10174000164A012101FA03F3536422E0FB88DBB25D
:10175000124A012101FA03F393641AE0FB88DBB219
:101760000F4A012101FA03F3136412E0FB88DBB294
:101770000B4A012101FA03F353640AE0FB88DBB250
:10178000074A012101FA03F3936402E00548FFF7D9
:101790003BFD00BF1037BD4680BD00BF00100040BC
:1017A00000100240447A000880B582B000AF786033
:1017B00039603B68202B02D91048FFF725FD7B6874
:1017C00003F120023B68DBB25B09DBB29B001344F0
:1017D00019683B68DBB203F01F0301229A407B6863
:1017E00003F120003B68DBB25B09DBB29B000344E2
:1017F0000A431A6000BF0837BD4680BDB47A0008AE
:1018000080B584B000AFF860B9601346FB71BB6867
:10181000202B02D90C48FFF7F7FCFA68BB6840336D
:101820001B0113441B6823F4E022FB791B0403F41F
:10183000E0231A43F968BB6840331B010B441A606C
:1018400000BF1037BD4680BD907B000880B485B0D6
:1018500000AFF860B9607A603B60054B1B68013BE4
:10186000034A136000BF1437BD465DF8047B704720
:10187000D811080080B485B000AFF860B9607A6014
:101880003B60054B1B680133034A136000BF1437EC
:10189000BD465DF8047B7047D811080080B584B060
:1018A00002AF05F0F8FC05F0D9FC04F0F3F90121D2
:1018B0007F4802F037F97F4B002201217C4804F079
:1018C0004CFF40F21F50FFF715FF7B4804F013FE5A
:1018D0007A4804F010FE7A4804F00DFE794804F0CE
:1018E0000AFE0121784804F04BFE784B01221A6170
:1018F000072000F0DBFD0346754A1361754804F0CC
:101900004DFD754805F0FAF8734B02221A81724BAF
:1019100003221A70704B02225A706F4B2022DA7227
:101920006D4B4FF480729A816B4B0022DA816A49C9
:101930006A4805F069F8402300220021674802F058
:10194000A7FC802300220121644802F0A1FCC023EF
:1019500000220221614802F09BFC614805F005F974
:101960005F4B02221A815E4B03221A705C4B0222EB
:101970005A705B4B00225A71594B00229A74584B93
:101980002022DA72564B4FF480729A81544B002217
:10199000DA815349534805F078F8402300220021AA
:1019A000504802F075FC8023002201214D4802F0CE
:1019B0006FFCC023002202214A4802F069FC4A4819
:1019C00001F0C6FA07214848FFF7EEFE022146481B
:1019D000FFF7EAFE032207214348FFF711FF022227
:1019E00002214148FFF70CFF07223F493F4801F021
:1019F000C9FB02223C493E4801F0C4FB002300938E
:101A00003C4B3A4A3C49354802F01EFE0023009305
:101A10003A4B374A3A49334805F064F900F07CF80C
:101A2000384804F0BBFC384B1B68002B1DD0374BEB
:101A30001B689B02364A13443B604FF480637B6013
:101A40003B460CCB2E49274805F05FF90346002B97
:101A500004D12E4B1B6801332C4A13602B4B1B689F
:101A6000012B02D1294B00221A60274B1B68002B47
:101A7000D9D1284B1B689B02254A13443B604FF485
:101A800080637B603B460CCB1B49144805F0F0F8A3
:101A90000346002B04D11F4B1B6801331D4A136002
:101AA0001C4B1B68012BBED11A4B00221A60BAE7EF
:101AB00000001040CC110800E815008028250080A7
:101AC0004825008040170080440700800020024025
:101AD000B81108006C7C0008A01F080000801040AE
:101AE000B41F08000070104000401040482008005B
:101AF0005820080075180008C81F08004D18000875
:101B000008200800987C0008D8110800281F080049
:101B1000241B0800241F080080B500AF08490948AD
:101B200004F09CF80346002B05D0074804F036FC6F
:101B30000648FFF769FB064804F030FC00BF80BD93
:101B4000D01108002C1F0800B87C0008D07C0008C9
:101B5000FC7C000880B400AF024B1846BD465DF81F
:101B6000047B70470024F40080B400AF0A4BD3F824
:101B70006831002B09D0084BD3F86831012B02D112
:101B8000064B1B6803E0002301E0054B1B68184669
:101B9000BD465DF8047B7047001000406C200800D3
:101BA0006820080080B400AF034B1B681846BD4690
:101BB0005DF8047B704700BF7020080080B400AF60
:101BC000024B1846BD465DF8047B704740420F004B
:101BD00080B400AF074BD3F8C03103F00103002BF2
:101BE00002D04FF4004300E000231846BD465DF8E4
:101BF000047B70470010004080B483B000AF002326
:101C00007B600D4BD3F8003103F44023002B03D04D
:101C1000B3F5402F03D005E0084B7B6005E0084B8F
:101C20007B6002E000237B6000BF7B6818460C37B6
:101C3000BD465DF8047B704700100040006CDC027C
:101C4000008793032DE9B04F86B000AF00237B617E
:101C50002C4BD3F8003203F00703022B0ED0022BDB
:101C600012D8002B02D0012B04D00DE0FFF772FF39
:101C700078610AE0FFF778FF786106E0FFF7BCFFC4
:101C800003465B087B6100E000BF1E4BD3F80432C3
:101C900003F00103002B2FD17B6900229A46934663
:101CA000184BD3F8103200229846914608FB0BF2ED
:101CB0000AFB09F31344AAFB08452B441D46114BAC
:101CC000D3F8143200223B607A60D7E90023204623
:101CD000294605F0A3FD02460B46C7E90223094B3E
:101CE000D3F804321B0CDAB27B6902FB03F37B618D
:101CF000BB687A6913447B617B6918461837BD4617
:101D0000BDE8B08F001000402DE9B04FA6B000AF85
:101D1000034687F88F30FFF795FFC7F89400884B8C
:101D2000D3F8043203F00103002B40F0018197F84F
:101D30008F30032B00F2F88001A252F823F000BF8D
:101D4000511D0008CF1D0008431E0008B71E0008E3
:101D5000D7F894300022C7F88030C7F88420D7E93C
:101D6000204522462B464FF000004FF00001D900DD
:101D700041EA5271D00002460B46214651183962A1
:101D8000294643EB01017962D7E908120B46DB18BB
:101D9000BB61134642EB0303FB61D7E906341846E7
:101DA0002146674BD3F818320022BB67FA67BB6F36
:101DB00003F03F033B6700237B67D7E91C2305F053
:101DC0002DFD02460B461346C7F89430B1E0D7F814
:101DD00094300022BB66FA66D7E91A4522462B46A4
:101DE0004FF000004FF00001D90041EA5271D000DD
:101DF00002460B46214612EB010A294643EB010B32
:101E00001AEB0A033B614BEB0B037B61D7E904AB95
:101E1000504659464A4BD3F818321B0A00223B66FB
:101E20007A663B6E03F03F03BB650023FB65D7E991
:101E3000162305F0F3FC02460B461346C7F8943010
:101E400077E0D7F8943000223B657A65D7E91445EE
:101E500022462B464FF000004FF00001D90041EA26
:101E60005271D00002460B46214612EB010829466A
:101E700043EB010918EB0803BB6049EB0903FB6066
:101E8000D7E90289404649462D4BD3F818321B0C3E
:101E90000022BB64FA64BB6C03F03F033B64002385
:101EA0007B64D7E9102305F0B9FC02460B461346C4
:101EB000C7F894303DE0D7F894300022BB63FA6352
:101EC000D7E90E8942464B464FF000004FF0000123
:101ED000D90041EA5271D00002460B4641465418DF
:101EE000494643EB01010D4623193B6045EB0503D1
:101EF0007B60D7E9004520462946114BD3F81832BC
:101F00001B0E00223B637A633B6B03F03F03BB6213
:101F10000023FB62D7E90A2305F080FC02460B464A
:101F20001346C7F8943004E00023C7F8943000E06B
:101F300000BFD7F8943018469837BD46BDE8B08F3B
:101F40000010004080B500AF0020FFF7DDFE024624
:101F5000044BD3F84032DBB20133B2FBF3F3184643
:101F600080BD00BF001000402DE9B04F86B000AF2B
:101F700000237B612D4BD3F8003203F00703022BC3
:101F80000ED0022B12D8002B02D0012B04D00DE072
:101F9000FFF7E0FD78610CE0FFF7E6FD786108E00F
:101FA000FFF72AFE03465B087B6102E000237B61AA
:101FB00000BF1E4BD3F8043203F00103002B2FD1D6
:101FC0007B6900229A469346184BD3F810320022C0
:101FD0009846914608FB0BF20AFB09F31344AAFB4F
:101FE00008452B441D46114BD3F8143200223B60A8
:101FF0007A60D7E900232046294605F00FFC024607
:102000000B46C7E90223094BD3F804321B0CDAB2A2
:102010007B6902FB03F37B61BB687A6913447B61D4
:102020007B6918461837BD46BDE8B08F00100240E6
:102030002DE9B04FA6B000AF034687F88F30FFF709
:1020400093FFC7F89400884BD3F8043203F00103E0
:10205000002B40F0018197F88F30032B00F2F880BD
:1020600001A252F823F000BF79200008F7200008F1
:102070006B210008DF210008D7F894300022C7F850
:102080008030C7F88420D7E9204522462B464FF000
:1020900000004FF00001D90041EA5271D000024621
:1020A0000B46214651183962294643EB01017962FA
:1020B000D7E908120B46DB18BB61134642EB03035A
:1020C000FB61D7E9063418462146674BD3F818322E
:1020D0000022BB67FA67BB6F03F03F033B67002337
:1020E0007B67D7E91C2305F099FB02460B46134694
:1020F000C7F89430B1E0D7F894300022BB66FA6696
:10210000D7E91A4522462B464FF000004FF0000158
:10211000D90041EA5271D00002460B46214612EB2B
:10212000010A294643EB010B1AEB0A033B614BEB17
:102130000B037B61D7E904AB504659464A4BD3F8B1
:1021400018321B0A00223B667A663B6E03F03F039F
:10215000BB650023FB65D7E9162305F05FFB02464C
:102160000B461346C7F8943077E0D7F89430002236
:102170003B657A65D7E9144522462B464FF00000AF
:102180004FF00001D90041EA5271D00002460B46DF
:10219000214612EB0108294643EB010918EB08031D
:1021A000BB6049EB0903FB60D7E902894046494619
:1021B0002D4BD3F818321B0C0022BB64FA64BB6CA5
:1021C00003F03F033B6400237B64D7E9102305F051
:1021D00025FB02460B461346C7F894303DE0D7F87E
:1021E00094300022BB63FA63D7E90E8942464B461E
:1021F0004FF000004FF00001D90041EA5271D000C9
:1022000002460B4641465418494643EB01010D4630
:1022100023193B6045EB05037B60D7E90045204669
:102220002946114BD3F818321B0E00223B637A6308
:102230003B6B03F03F03BB620023FB62D7E90A2339
:1022400005F0ECFA02460B461346C7F8943004E05A
:102250000023C7F8943000E000BFD7F89430184648
:102260009837BD46BDE8B08F0010024080B500AF82
:102270000020FFF7DDFE0246044BD3F84032DBB20C
:102280000133B2FBF3F3184680BD00BF00100240DB
:1022900080B582B000AF00237B60274BD3F8343485
:1022A00003F00303032B3FD801A252F823F000BF31
:1022B000C122000811230008192300082123000867
:1022C0001D4BD3F8303403F00303032B1CD801A2B9
:1022D00052F823F0E5220008F1220008F922000854
:1022E00001230008FFF788FC03469B087B600EE093
:1022F000FFF73AFC78600AE0FFF760FC786006E0E0
:10230000FFF77AFC786002E000237B6000BF0EE0FC
:10231000FFF720FC78600AE0FFF714FE786006E023
:10232000FFF756FC786002E000237B6000BF7B680B
:1023300018460837BD4680BD001000402DE9B04F5B
:102340008CB000AF78610023FB620123FB610023A6
:10235000BB6200237B6200233B627B69072B1CD896
:10236000504A7B6928335B0113441B6803F0070361
:10237000BB624C4A7B6928335B01134404331B68FE
:102380001B0ADBB23B62474A7B6928335B0113447B
:1023900004331B68DBB27B622CE07B690E2B11D10E
:1023A000404BD3F8C03603F00703BB623D4BD3F874
:1023B000C4361B0ADBB23B623A4BD3F8C436DBB2FD
:1023C0007B6217E07B690F2B11D1364BD3F8E036D7
:1023D00003F00703BB62334BD3F8E4361B0ADBB2CE
:1023E0003B62304BD3F8E436DBB27B6202E02E482E
:1023F000FEF70AFFBB6A032B24D801A252F823F090
:102400001124000819240008352400083D24000880
:10241000FFF73EFFF86218E0224BD3F8FC36DBB240
:102420000133FB61FFF78EFD0246FB69B2FBF3F35C
:10243000FB620AE0FFF78EFBF86206E0FFF7DCFBC9
:10244000F86202E00023FB6200BFFB6A00229A46AA
:1024500093467B6A0022BB60FA60D7E902120B4602
:102460005C1C134643F1000504FB0BF20AFB05F369
:102470001344AAFB04894B4499463A6A7B6A134485
:10248000013300223B607A60D7E900234046494689
:1024900005F0C4F902460B46134618463037BD46D0
:1024A000BDE8B08F00100240147D000880B584B0F4
:1024B00000AF78600023FB600023BB607B68072BC4
:1024C00008D8254A7B685B01134403F5A1631B68A8
:1024D000BB6012E07B680E2B04D11F4BD3F8C836CB
:1024E000BB600AE07B680F2B04D11B4BD3F8E836A6
:1024F000BB6002E01948FEF787FEBB68042B22D8B8
:1025000001A252F823F000BF1D2500082525000870
:102510002D250008352500083D250008FFF71AFB8A
:10252000F86013E0FFF768FBF8600FE0FFF79EFE2E
:10253000F8600BE0FFF736FBF86007E07868FFF71C
:10254000FDFEF86002E00023FB6000BFFB68184658
:102550001037BD4680BD00BF001002402C7D000832
:1025600080B584B000AF78607B681B78FB60FB6847
:102570000F2B02D92948FEF747FE7B689B78FF2B7B
:1025800002D02748FEF740FEFB68072B17D87B6870
:102590005B78244A1946FB6828335B0113441960B1
:1025A0007B68DB781B029BB27A6892781D491A43DC
:1025B000FB6828335B010B4404331A602AE0FB6894
:1025C0000E2B10D17B685A78164BC3F8C0267B6857
:1025D000DB781B029BB27A6892781146114A0B4352
:1025E000C2F8C43616E0FB680F2B10D17B685A780E
:1025F0000C4BC3F8E0267B68DB781B029BB27A6841
:1026000092781146074A0B43C2F8E43602E00648C6
:10261000FEF7FAFD1037BD4680BD00BF447D0008BF
:10262000607D0008001002408C7D000880B586B0F7
:1026300000AF0346FB7100237B6100233B61002355
:10264000FB600023BB603F4BD3F8103603F48033AC
:10265000002B06D13B4BD3F8143603F08053002BEC
:1026600002D03948FEF7D0FD384BD3F80431374A51
:1026700043F00103C2F80431FFF70AFE0246334B70
:10268000D3F80034DBB20133B2FBF3F3304A18461F
:102690009047FB79002B12D107F114032D4A1946FC
:1026A0003020904707F110032A4A194631209047FD
:1026B00007F10C03274A19463220904711E007F131
:1026C0001403244A19463320904707F11003214A86
:1026D00019463420904707F10C031E4A194635204D
:1026E000904707F108031B4A19460C2090471A4BE4
:1026F00098477B6903F01F023B695B0103F4FC63AD
:102700001A43FB68DB0203F47E331343FA79002A91
:1027100001D1002201E04FF440220C491343C1F8DB
:1027200000310A4BD3F80431084A23F00103C2F800
:102730000431BB680949184600F0A2FA00BF1837F7
:10274000BD4680BD00200040A87D0008001000406C
:10275000F99F001357A0001347A0001300A3E11135
:1027600080B582B000AF00237B60174BD3F81036E2
:1027700003F40043002B06D1134BD3F8143603F0B7
:102780008053002B02D01148FEF73EFDFFF780FD7D
:1027900002460F4BD3F80034DBB20133B2FBF3F344
:1027A0000C4A184690473B1D0B4A19460D2090478E
:1027B0000A4B98477B680A49184600F061FA00BF47
:1027C0000837BD4680BD00BF002000403C7E0008A9
:1027D00000100040F99F001357A0001347A00013FA
:1027E00000A3E11180B582B000AF78605C4B4FF47C
:1027F000C022C3F820267B681A785A4BC3F80022FF
:10280000584A7B685B68C2F81032564A7B689B68FE
:10281000C2F814327B681B7B062B5ED801A252F8EB
:1028200023F000BF41280008572800086D28000841
:102830008328000899280008AF280008C528000848
:10284000484BD3F8043223F47F03464A43F4801301
:10285000C2F8043242E0434BD3F8043223F47F033E
:10286000404A43F48813C2F8043237E03D4BD3F8B2
:10287000043223F47F033B4A43F49013C2F804323A
:102880002CE0384BD3F8043223F47F03354A43F469
:102890009813C2F8043221E0324BD3F8043223F407
:1028A0007F03304A43F4A013C2F8043216E02D4BE4
:1028B000D3F8043223F47F032A4A43F4A813C2F85E
:1028C00004320BE0274BD3F8043223F47F03254A6C
:1028D00043F4B013C2F8043200E000BF214BD3F838
:1028E0000432204A23F00203C2F804321C4B4FF496
:1028F000C022C3F830261B4BD3F80C329BB25B08C6
:102900001949184600F0BCF9164BD3F80432154AA1
:1029100043F40053C2F80432124BD3F80C329BB28A
:10292000124AA2FB03239B080F49184600F0A8F99E
:102930000C4BD3F804320B4A23F40053C2F8043290
:10294000084BD3F80C329BB2084AA2FB03235B0866
:102950000549184600F094F900BF0837BD4680BD10
:10296000002000400010004000A3E111ABAAAAAA79
:1029700080B485B000AF03460A46FB711346BB71B5
:10298000FB79FB601E4BD3F81822FB68DB00BF21EC
:1029900001FA03F3DB431340BB60FB68DB008022DA
:1029A0009A401749BB681343C1F81832BB7903F04A
:1029B0003F02FB68DB009A401149BB681343C1F832
:1029C000183200BF0E4BD3F81822FB68DB00402101
:1029D00001FA03F31340002BF4D0094BD3F818226B
:1029E000FB68DB00402101FA03F305491343C1F8FA
:1029F000183200BF1437BD465DF8047B704700BF36
:102A00000010004080B582B000AF78605C4B4FF49E
:102A1000C012C3F820267B681A785A4BC3F80022EC
:102A2000584A7B685B68C2F81032564A7B689B68DC
:102A3000C2F814327B681B7B062B5ED801A252F8C9
:102A400023F000BF612A0008772A00088D2A0008B9
:102A5000A32A0008B92A0008CF2A0008E52A00089E
:102A6000484BD3F8043223F47F03464A43F48013DF
:102A7000C2F8043242E0434BD3F8043223F47F031C
:102A8000404A43F48813C2F8043237E03D4BD3F890
:102A9000043223F47F033B4A43F49013C2F8043218
:102AA0002CE0384BD3F8043223F47F03354A43F447
:102AB0009813C2F8043221E0324BD3F8043223F4E5
:102AC0007F03304A43F4A013C2F8043216E02D4BC2
:102AD000D3F8043223F47F032A4A43F4A813C2F83C
:102AE00004320BE0274BD3F8043223F47F03254A4A
:102AF00043F4B013C2F8043200E000BF214BD3F816
:102B00000432204A23F00203C2F804321C4B4FF473
:102B1000C012C3F830261B4BD3F80C329BB25B08B3
:102B20001949184600F0ACF8164BD3F80432154A90
:102B300043F40053C2F80432124BD3F80C329BB268
:102B4000124AA2FB03239B080F49184600F098F88D
:102B50000C4BD3F804320B4A23F40053C2F804326E
:102B6000084BD3F80C329BB2084AA2FB03235B0844
:102B70000549184600F084F800BF0837BD4680BDFF
:102B8000002000400010024000A3E111ABAAAAAA55
:102B900080B485B000AF03460A46FB711346BB7193
:102BA000FB79FB601E4BD3F81822FB68DB00BF21CA
:102BB00001FA03F3DB431340BB60FB68DB008022B8
:102BC0009A401749BB681343C1F81832BB7903F028
:102BD0003F02FB68DB009A401149BB681343C1F810
:102BE000183200BF0E4BD3F81822FB68DB004021DF
:102BF00001FA03F31340002BF4D0094BD3F8182249
:102C0000FB68DB00402101FA03F305491343C1F8D7
:102C1000183200BF1437BD465DF8047B704700BF13
:102C20000010024080B584B000AF03463A60FB71EB
:102C30000B46BB71BB79002B01D0012300E00023C0
:102C4000FB60FB79002B0CD00B4AFB68C2F86031AB
:102C5000094B0022C3F868210849386800F010F8D1
:102C600005E0054AFB6843F00203C2F8603100BF8B
:102C70001037BD4680BD00BF0010004000A3E11129
:102C80002DE9B04384B000AF7860396079680029DD
:102C900032D07968002088468146396800200A468B
:102CA000034602FB09F008FB03F10144A8FB0245BF
:102CB0004B191D46134A4FF000032046294604F0E5
:102CC000ADFD02460B46C7E90223D7E90223012BDB
:102CD00002D30D48FEF798FAD7E902014FF000023F
:102CE0004FF00003820842EA81728B08C7E9022391
:102CF000BB68184603F07CFC00BF1037BD46BDE83A
:102D0000B08300BF40420F00D07E000880B483B083
:102D100000AF0346FB7197F90730002B0BDBFB7903
:102D200003F01F02074997F907305B09012000FAF9
:102D300002F241F8232000BF0C37BD465DF8047B4A
:102D4000704700BF00E100E080B584B000AF0346EB
:102D5000FB80FB881B0A9BB2FB60FB68052B3FD8FE
:102D600001A252F823F000BF812D0008912D000828
:102D7000A12D0008B12D0008C12D0008D12D00089B
:102D8000FB88DBB21A4A012101FA03F313642AE03B
:102D9000FB88DBB2164A012101FA03F3536422E0F7
:102DA000FB88DBB2124A012101FA03F393641AE0B3
:102DB000FB88DBB20F4A012101FA03F3136412E02E
:102DC000FB88DBB20B4A012101FA03F353640AE0EA
:102DD000FB88DBB2074A012101FA03F3936402E0A6
:102DE0000548FEF711FA00BF1037BD4680BD00BF91
:102DF0000010004000100240FC7E000880B582B048
:102E000000AF786039603B68202B02D91048FEF78C
:102E1000FBF97B6803F148023B68DBB25B09DBB27C
:102E20009B00134419683B68DBB203F01F030122C7
:102E30009A407B6803F148003B68DBB25B09DBB278
:102E40009B0003440A431A6000BF0837BD4680BD9B
:102E5000147F000880B582B000AF786039603B68AD
:102E6000202B02D91048FEF7CFF97B6803F120022E
:102E70003B68DBB25B09DBB29B00134419683B681B
:102E8000DBB203F01F0301229A407B6803F12000AC
:102E90003B68DBB25B09DBB29B0003440A431A6068
:102EA00000BF0837BD4680BD9C7F000880B582B05A
:102EB00000AF786039603B68202B02D91048FEF7DC
:102EC000A3F97B6803F128023B68DBB25B09DBB244
:102ED0009B00134419683B68DBB203F01F03012217
:102EE0009A407B6803F128003B68DBB25B09DBB2E8
:102EF0009B0003440A431A6000BF0837BD4680BDEB
:102F00002480000880B584B000AF78600023FB60A7
:102F100009E00D4AFB6852F823307A689A4206D0DD
:102F2000FB680133FB60FB68012BF2D900E000BFB6
:102F3000FB68012B02D90548FEF766F9FB681846C5
:102F40001037BD4680BD00BFAC800008C0800008BF
:102F500080B584B000AF78607868FFF7D3FFF86081
:102F60007868FFF7CFFF0346104A32F8133018464F
:102F7000FFF7EAFE7868FFF7C5FF03460C4A32F810
:102F80001330184604F042F80A4AFB6852F823301E
:102F90001A467B689A607B681B6843F001027B6875
:102FA0001A6000BF1037BD4680BD00BFB480000866
:102FB000B8800008DC11080080B588B000AFF86068
:102FC000B9607A603B60BB6A03F00F03002B02D04C
:102FD0004148FEF719F90023FB610023BB61002380
:102FE0007B6100233B61BB681B0A03F00303FB61A9
:102FF000BB681B0B03F00303BB61BB689B0B03F0B7
:1030000003037B61BB681B0CC3F3090301333B6102
:10301000FB69022B02D10423FB6102E0FB6901334F
:10302000FB617B68002B49D07B68FA69B3FBF2F245
:10303000F96901FB02F29B1A002B3FD13B68002B80
:103040003CD03B68FA69B3FBF2F2F96901FB02F28A
:103050009B1A002B32D1BB69032B01D10423BB6126
:103060007B69032B01D104237B61FB68BA681A607A
:103070003B69FA6902FB03F3BA6903FB02F27B685E
:103080001A44BB69F96901FB03F3D31A1A46FB68BA
:103090005A603B69FA6902FB03F37A6903FB02F2A7
:1030A0003B681A447B69F96901FB03F3D31A1A469A
:1030B000FB689A60FB68BA6ADA6009E0FB68002284
:1030C0001A60FB6800225A60FB6800229A6000BF09
:1030D00000BF2037BD4680BDF480000880B582B0B7
:1030E00000AF78607B68002B02D12548FEF78CF892
:1030F0007B689A687B681B7B19461046FFF7D6FEF3
:1031000000BF7B689B6803F138027B681B7B5B090F
:10311000DBB29B0013441A687B681B7B03F01F0320
:1031200022FA03F303F00103002BEAD17B689B68CA
:1031300003F178027B681B7B5B09DBB29B001344C5
:1031400019687B681B7B03F01F0301229A407B6890
:103150009B6803F178007B681B7B5B09DBB29B00FB
:1031600003440A431A607B689A687B681B7B194694
:103170001046FFF76FFE00BF0837BD4680BD00BF99
:103180007081000880B586B000AFF860B9607A60E1
:10319000FB68002B02D07B68202B02D91848FEF771
:1031A00033F800237B61B868FFF7ACFE3861B8687C
:1031B00003F047FA786110220021F86804F0FEF964
:1031C000FB68BA689A607B68DAB2FB681A737A693E
:1031D0007B6813440B49FA6841F823200A4A3B698B
:1031E000134493F90030184603F012FAFB689B6809
:1031F00079681846FFF702FE00BF1837BD4680BD4C
:103200009081000874200800BC80000880B584B05C
:1032100000AFF860B9607A60FB68002B02D1064805
:10322000FDF7F2FFFB68BA681A60FB687A685A60BB
:1032300000BF1037BD4680BDF481000880B588B05E
:1032400002AFF860B9607A603B607B68002B02D007
:103250003B68002B02D11748FDF7D6FFFB681B7BAC
:10326000202B02D91448FDF7CFFFFB689B68184656
:10327000FFF748FE7861114A7B6952F82320FB680A
:103280001B7B1B0113443B613B6A00933B687A68DC
:10329000B9683869FFF790FEFB689A68FB681B7B8A
:1032A0001B01134403F58163BA681A6000BF183725
:1032B000BD4680BD1482000858820008DC11080059
:1032C00080B584B000AF78607B68002B02D11A48CB
:1032D000FDF79AFF7B681B7BFB60FB68202B02D904
:1032E0001648FDF791FF7B689B68F9681846FFF761
:1032F000B1FD7B689A687B681B7B40331B011344DC
:103300001B6803F00203002B11D17B689A68FB68ED
:103310001B01134403F581631B687A68916843F0CD
:103320000402FB681B010B4403F581631A6000BFB4
:103330001037BD4680BD00BFB8820008D8820008A3
:1033400090B589B000AF7860786803F07AF9B86119
:103350000023FB610023FB750023BB7500237B75F5
:103360000023FB61C2E0FA69BB691344644A52F866
:1033700023303B613B69002B00F0B4803B691B7B31
:1033800003F01F03FB733B699B6803F148023B6931
:103390001B7B5B09DBB29B0013441A68FB7B22FAA0
:1033A00003F303F00103002B14BF01230023FB757B
:1033B0003B699B6803F158023B691B7B5B09DBB2ED
:1033C0009B0013441A68FB7B22FA03F303F001030A
:1033D000002B14BF01230023BB75FB7D002B1DD0E8
:1033E000BB7D002B1AD0FA7B3B699B6803F1580127
:1033F0003B691B7B5B09DBB29B000B44012101FA9B
:1034000002F21A603B691B68002B07D03B691C68FD
:103410003B695968002301223869A0473B699B68D2
:1034200003F160023B691B7B5B09DBB29B00134429
:103430001A68FB7B22FA03F303F00103002B14BF8D
:10344000012300237B75FB7D002B1DD07B7D002B92
:103450001AD0FA7B3B699B6803F160013B691B7BD7
:103460005B09DBB29B000B44012101FA02F21A60F6
:103470003B691B68002B07D03B691C683B69596896
:10348000012301223869A0473B699B6803F1400290
:103490003B691B7B5B09DBB29B0013441A68FB7B17
:1034A00022FA03F303F00103002B1CD0FA7B3B69E3
:1034B0009B6803F140013B691B7B5B09DBB29B000E
:1034C0000B44012101FA02F21A603B691B68002BD0
:1034D00009D03B691C683B6959680223002238699E
:1034E000A04700E000BFFB690133FB61FB69202BB3
:1034F0007FF639AF00BF00BF2437BD4690BD00BF87
:103500007420080080B500AF0248FFF719FF00BF24
:1035100080BD00BF0040104080B500AF0248FFF7FB
:103520000FFF00BF80BD00BF0050104080B584B0C9
:1035300000AF0346FB80FB881B0A9BB2FB60FB6865
:10354000052B3FD801A252F823F000BF65350008D3
:10355000753500088535000895350008A535000843
:10356000B5350008FB88DBB21A4A012101FA03F3E2
:1035700013642AE0FB88DBB2164A012101FA03F347
:10358000536422E0FB88DBB2124A012101FA03F303
:1035900093641AE0FB88DBB20F4A012101FA03F3BE
:1035A000136412E0FB88DBB20B4A012101FA03F33A
:1035B00053640AE0FB88DBB2074A012101FA03F3F6
:1035C000936402E00548FDF71FFE00BF1037BD46BB
:1035D00080BD00BF0010004000100240FC7E0008CB
:1035E00080B584B000AF78607B68BB600023FB606F
:1035F00009E0BA680C49FB6851F823309A4206D0BA
:10360000FB680133FB60FB68092BF2D900E000BFC7
:10361000FB68092B02D90548FDF7F6FDFB68184643
:103620001037BD4680BD00BF30830008808300088E
:1036300080B584B000AF78600B46FB707868FFF708
:10364000CFFFF8600C4AFB6832F813301846FFF7DA
:103650006DFF0A4AFB6832F81330184603F0D6FCB7
:10366000FB7800221946786803F03DF803461846B7
:103670001037BD4680BD00BF588300086C8300082A
:1036800080B582B000AF1048FFF7AAFF78600F4AFC
:103690007B6852F82330002B02D10D48FDF7B4FDB2
:1036A0000A4A7B6852F823300A497A6851F8222086
:1036B000104609497A6851F822201146984700BF00
:1036C0000837BD4680BD00BF006010407C21080067
:1036D000C483000830830008A421080080B582B0AC
:1036E00000AF1048FFF77CFF78600F4A7B6852F804
:1036F0002330002B02D10D48FDF786FD0A4A7B6876
:1037000052F823300A497A6851F8222010460949B4
:103710007A6851F822201146984700BF0837BD4605
:1037200080BD00BF007010407C21080000840008AC
:1037300030830008A421080080B582B000AF104893
:10374000FFF74EFF78600F4A7B6852F82330002B5A
:1037500002D10D48FDF758FD0A4A7B6852F8233024
:103760000A497A6851F82220104609497A6851F8C6
:1037700022201146984700BF0837BD4680BD00BFD4
:10378000008010407C2108003C8400083083000841
:10379000A421080080B582B000AF1048FFF720FFD9
:1037A00078600F4A7B6852F82330002B02D10D4815
:1037B000FDF72AFD0A4A7B6852F823300A497A68E5
:1037C00051F82220104609497A6851F82220114602
:1037D000984700BF0837BD4680BD00BF009010402D
:1037E0007C2108007884000830830008A4210800A8
:1037F00080B582B000AF1048FFF7F2FE78600F4A44
:103800007B6852F82330002B02D10D48FDF7FCFCF9
:103810000A4A7B6852F823300A497A6851F8222014
:10382000104609497A6851F822201146984700BF8E
:103830000837BD4680BD00BF002012407C21080033
:10384000B484000830830008A421080080B582B049
:1038500000AF1048FFF7C4FE78600F4A7B6852F84B
:103860002330002B02D10D48FDF7CEFC0A4A7B68BD
:1038700052F823300A497A6851F822201046094943
:103880007A6851F822201146984700BF0837BD4694
:1038900080BD00BF003012407C210800F084000889
:1038A00030830008A421080080B582B000AF104822
:1038B000FFF796FE78600F4A7B6852F82330002BA2
:1038C00002D10D48FDF7A0FC0A4A7B6852F823306C
:1038D0000A497A6851F82220104609497A6851F855
:1038E00022201146984700BF0837BD4680BD00BF63
:1038F000004012407C2108002C850008308300081D
:10390000A421080080B582B000AF1048FFF768FE20
:1039100078600F4A7B6852F82330002B02D10D48A3
:10392000FDF772FC0A4A7B6852F823300A497A682C
:1039300051F82220104609497A6851F82220114690
:10394000984700BF0837BD4680BD00BF00501240F9
:103950007C2108006885000830830008A421080045
:1039600080B582B000AF1048FFF73AFE78600F4A8A
:103970007B6852F82330002B02D10D48FDF744FC40
:103980000A4A7B6852F823300A497A6851F82220A3
:10399000104609497A6851F822201146984700BF1D
:1039A0000837BD4680BD00BF006012407C21080082
:1039B000A485000830830008A421080080B582B0E7
:1039C00000AF1048FFF70CFE78600F4A7B6852F892
:1039D0002330002B02D10D48FDF716FC0A4A7B6804
:1039E00052F823300A497A6851F8222010460949D2
:1039F0007A6851F822201146984700BF0837BD4623
:103A000080BD00BF007012407C210800E0850008E6
:103A100030830008A421080080B500AF044B1B6868
:103A2000044A126811460448984700BF80BD00BF91
:103A3000D0210800CC2108000040134080B584B09C
:103A400000AF0346FB80FB881B0A9BB2FB60FB6850
:103A5000052B3FD801A252F823F000BF753A0008A9
:103A6000853A0008953A0008A53A0008B53A0008DA
:103A7000C53A0008FB88DBB21A4A012101FA03F3B8
:103A800013642AE0FB88DBB2164A012101FA03F332
:103A9000536422E0FB88DBB2124A012101FA03F3EE
:103AA00093641AE0FB88DBB20F4A012101FA03F3A9
:103AB000136412E0FB88DBB20B4A012101FA03F325
:103AC00053640AE0FB88DBB2074A012101FA03F3E1
:103AD000936402E00548FDF797FB00BF1037BD4631
:103AE00080BD00BF0010004000100240FC7E0008B6
:103AF00080B582B000AF786039603B68072B02D98F
:103B00000648FDF781FB064A3B6832F81330184639
:103B1000FFF794FF00BF0837BD4680BD3C86000814
:103B20001C86000880B582B000AF786039603968C3
:103B30007868FFF7DDFF054A3B6832F81330184616
:103B400003F064FA00BF0837BD4680BD2C8600082C
:103B500080B483B000AF786039603A68064B134098
:103B60003B607B683A68C3F8042800BF0C37BD4649
:103B70005DF8047B704700BF50800A0380B582B0B7
:103B800000AF78600C220021786803F017FD7B6895
:103B900001221A707B68064A5A607B6800221A72FA
:103BA0007B6823225A7200BF0837BD4680BD00BF24
:103BB000A086010080B48DB000AFF860B9607A6073
:103BC00000233B620023FB617A6813469B00134489
:103BD0005B001A46444BA3FB0223DB0C0533434A2C
:103BE000A2FB0323DB08BB627A68BB6AB2FBF3F279
:103BF000BB68B2FBF3F3032B05D87B689A08BB685C
:103C0000B2FBF3F3BB6200237B62BB6AFB6236E06C
:103C10007A6813469B0013445B001946FB6ABA6836
:103C200002FB03F3B1FBF3F30533304AA2FB03239A
:103C3000DB08BB61BB69122B28BF1223BB61BB68C9
:103C4000BA6902FB03F3FA6A02FB03F37A68D31A38
:103C50007B617A697B6A9A4202D37B6A002B05D129
:103C6000FB6AFB61BB693B627B697B627B69002B02
:103C700009D0BB69042B06D9FB6A0133FB62FB6ADE
:103C8000B3F5803FC4D9FB69013B9AB2FB68C3F826
:103C900014283B6A03F00103002B0FD13B6A5B0839
:103CA000023B03F007023B6A5B08023B1B0103F087
:103CB00070031A43FB68C3F824280EE03B6A5B08D4
:103CC000013B03F007023B6A5B08023B1B0103F068
:103CD00070031A43FB68C3F8242800BF3437BD467D
:103CE0005DF8047B704700BF83DE1B43CDCCCCCC9A
:103CF00080B586B000AFF8600B467A60FB72FB7A45
:103D0000002B02D07B68002B02D11348FDF77CFA10
:103D1000FB7A7A6802FB03F3104AA2FB03235B0AD7
:103D200005330F4AA2FB0323DB087B617B69B3F5F4
:103D3000805F02D94FF480537B617B69013B1B019B
:103D400043F00F037B61FB687A69C3F8102800BF5A
:103D50001837BD4680BD00BF708600081F85EB5137
:103D6000CDCCCCCC80B584B000AF78600023FB60B4
:103D7000786802F0ACFDB860BB6803F08073002B7C
:103D800002D040F63423FB60BB6803F00073002BC5
:103D900002D040F63523FB60BB6803F00103002B23
:103DA000E6D0BB6803F01003002B02D040F62D23B1
:103DB000FB60BB6803F04003002B02D04FF4236389
:103DC000FB6004497868FFF7C3FEFB6818461037AC
:103DD000BD4680BD5000000380B588B000AFF860DC
:103DE000B9607A603B60BB68BB61BB68002B02D1E5
:103DF0003148FDF709FA0023FB613AE0F868FFF764
:103E0000B1FFF861FB69002B01D0FB6950E0FB6852
:103E1000D3F804385B0803F007037B617B69022B4E
:103E200007D07B69022B1BD37B69033B012B17D87F
:103E30000FE0BB695A1CBA611B781A46FB68C3F8CD
:103E400028287B68013B7B60FB680122C3F820289F
:103E50000AE040F62A23FB61F86802F09FFD03E0C8
:103E600040F63123FB6100BFFB69002B01D0FB69E9
:103E70001EE07B68002BC1D1F868FFF773FFF86183
:103E8000FB69002B01D0FB6912E03B6803F00403DF
:103E9000002B0CD1FB680422C3F82028F868FFF738
:103EA00061FFF861FB69002B01D0FB6900E0002392
:103EB00018462037BD4680BDAC86000880B588B066
:103EC00000AFF860B9607A603B60BB68BB61BB68FB
:103ED000002B02D12B48FDF797F90023FB6149E045
:103EE000F868FFF73FFFF861FB69002B01D0FB6921
:103EF00044E0FB68D3F804385B0803F007037B61F8
:103F00007B69012B07D07B69002B29D07B69033BA0
:103F1000012B25D820E0FB68D3F82818BB695A1C70
:103F2000BA61CAB21A707B68013B7B607B68002B68
:103F300004D0FB680122C3F8202815E03B6803F099
:103F40000403002B10D1FB680422C3F82028F86872
:103F5000FFF708FFF86107E040F62A23FB6104E061
:103F600040F63123FB6100E000BFFB69002B01D06C
:103F7000FB6903E07B68002BB2D100231846203791
:103F8000BD4680BDCC86000880B588B000AF7860A3
:103F900039600023FB613B68002B02D15748FDF7D5
:103FA00033F90121786802F019FC0021786802F0E9
:103FB0004AFC3B681B6803F00103002B69D13B6896
:103FC000DB68002B02D13B685B7900E00023FB74C7
:103FD0003B681B79FA7C1946786802F0BCFCF861F2
:103FE000FB69002B55D1786802F0EEFCF861FB69A3
:103FF000002B01D0FB697DE03B68DB68002B48D0DB
:104000003B689B68BB613B68DB68013B7B610DE003
:10401000BB69D9B207F10C027B6913440A461A70D6
:10402000BB691B0ABB617B69013B7B617B69002B20
:10403000EEDA3B68DA6807F10C0104237868FFF7D1
:10404000CBFEF861FB69002B0AD0FB6940F62A22FF
:1040500093421ED1786802F0A1FC40F6332349E078
:104060003B685B79012B14D13B6819793B685B791C
:104070001A46786802F0D4FBF861FB69002B08D17E
:10408000786802F0A1FCF861FB69002B01D0FB69A4
:1040900030E0FB69002B24D13B685B79002B0ED10B
:1040A0003B685B69002B0AD03B6819693B685A6919
:1040B0003B681B687868FFF78FFEF86111E03B688A
:1040C0005B79012B0DD13B685B69002B09D03B6804
:1040D00019693B685A693B681B687868FFF7EEFE10
:1040E000F861FB6940F62A22934202D1786802F017
:1040F00055FCFB6918462037BD4680BDEC8600089C
:1041000080B584B000AF78604FF47A73FB6006E04E
:10411000FB687D3BFB601A497D20FEF7B1FD7B68A3
:10412000D3F8043E03F01003002B02D1FB68002BF0
:10413000EED17D23FB607B680022C3F8202E06E0D1
:10414000FB687D3BFB600E497D20FEF799FD7B6897
:10415000D3F8043E03F01003002B02D1FB68002BC0
:10416000EED17B68D3F8043E03F01003002B0CBFA4
:1041700001230023DBB218461037BD4680BD00BFC7
:1041800000A3E11180B584B000AF786039603B686E
:10419000002B02D13B48FDF737F80023FB600023DA
:1041A000BB603B681B781B0103F03003FA681343C4
:1041B000FB603B685B789B01DBB2FA681343FB60F2
:1041C0003B689B781B0203F48073FA681343FB601F
:1041D0003B68DB785B0203F40073FA681343FB600F
:1041E0007B68294A934207D13B681B79DB0203F4C1
:1041F0000063FA681343FB603B685B791B0303F4BD
:104200008053FA681343FB603B689B795B0303F4BC
:104210000053FA681343FB603B689B7A9B0203F4EC
:104220008063FA681343FB603B68DB7A013B1B0445
:1042300003F4F813FA681343FB603B689B89013B66
:10424000C3F30A03BA681343BB603B68DB891A04F3
:104250000E4B1340BA681343BB607B68FA68C3F81F
:10426000002C7B68BA68C3F8042C3B681B89013BAF
:10427000C3F30B027B68C3F81C2C00BF1037BD468C
:1042800080BD00BF0C870008006010400000FF07E1
:1042900080B586B000AFF860B9603B601346FB7133
:1042A000BB68022B02D91F48FCF7AEFFFA68BB6857
:1042B00061335B0113441B687B61FA68BB6861333F
:1042C0005B01134404331B683B617B6923F4806307
:1042D0007B61FB799B0203F480627B69134343F0AB
:1042E00001037B613B6923F0FF6323F4E0233B611F
:1042F0003B681A040C4B13403A6913433B61FA685C
:10430000BB6861335B0113447A691A60FA68BB6861
:1043100061335B01134404333A691A6000BF1837F4
:10432000BD4680BD2C8700080000FF0780B582B025
:1043300000AF786039603B68202B02D91048FCF749
:1043400063FF7B6803F148023B68DBB25B09DBB2C9
:104350009B00134419683B68DBB203F01F03012282
:104360009A407B6803F148003B68DBB25B09DBB233
:104370009B0003440A431A6000BF0837BD4680BD56
:10438000147F000880B582B000AF786039603B6868
:10439000202B02D91048FCF737FF7B6803F150024D
:1043A0003B68DBB25B09DBB29B00134419683B68D6
:1043B000DBB203F01F0301229A407B6803F1500037
:1043C0003B68DBB25B09DBB29B0003440A431A6023
:1043D00000BF0837BD4680BD6887000880B582B041
:1043E00000AF786039603B68202B02D90A48FCF79F
:1043F0000BFF7A683B6840331B0113441B6843F092
:10440000010279683B6840331B010B441A6000BF0E
:104410000837BD4680BD00BFF087000890B482B069
:1044200000AF0446084611461A462346FB71034670
:10443000BB710B467B7113463B71FB795B0003F04C
:104440000202BB79DB0003F008031A437B791B01EE
:1044500003F010031A433B795B0103F020031A4376
:104460003B7C042B05D03B7C013B1B0203F44073D7
:1044700001E04FF400731A433B7D042B05D13B7DD3
:10448000013B1B0303F4405303E03B7D1B0303F498
:1044900040531A433B7E042B04D13B7E013B9B03DC
:1044A0009BB202E03B7E9B039BB21A433B7CF969C3
:1044B000B1FBF3F3013B1904044B0B40134343F0EE
:1044C000010318460837BD4690BC70470000FF0343
:1044D00080B586B000AFF860B960394681E80C005D
:1044E000F86800F08FF878617A691346DB009B1A50
:1044F000DB003F4A13443B61BB68002B02D13D48BF
:10450000FCF782FEBB68002B01D104236BE03B6803
:1045100003F00303002B02D03748FCF775FE3B681D
:1045200003F00303002B01D004235CE07B68002B25
:1045300002D13248FCF768FE7B68002B01D10423CE
:1045400051E07B6803F00303002B02D02C48FCF7FA
:104550005BFE7B6803F00303002B01D0042342E0E1
:10456000BB6893F83430DBB2BA680233DB00134423
:104570009B68002B02D040F68E2334E0BB6893F892
:104580003430DBB23A6839690233DB000B445A60DD
:10459000BB6893F83430DBB27A6839690233DB00E8
:1045A0000B449A60BB6893F83430DBB23A68B96860
:1045B0000233DB000B445A60BB6893F83430DBB243
:1045C0007A68B9680233DB000B449A60BB6893F8E1
:1045D0003430DBB20133DBB203F00303DAB2BB6881
:1045E00083F83420002318461837BD4680BD00BF2D
:1045F000DC21080098880008BC880008F8880008BA
:104600002489000880B584B000AF78600023FB6087
:104610000BE00B4AFB6852F823207B689A4201D1D9
:10462000FB6808E0FB680133FB60FB68072BF0D9EF
:104630000448FCF7E9FD18461037BD4680BD00BFB1
:10464000788800085889000880B586B000AFF86007
:10465000B9607A603B60BB68002B02D12A48FCF746
:10466000D3FD7B68002B02D12848FCF7CDFDF8680C
:10467000FFF7C8FF78617A691346DB009B1ADB00FD
:10468000234A13443B6140220021B86802F096FFA0
:10469000BB6800221A60BB687A681A61BB683A6816
:1046A0009A60BB683A6ADA60FB68D3F8003C1B0C7E
:1046B00003F01F030133DB08DAB2BB681A71FB6831
:1046C000D3F8003C03F48063002B02D1BB680422C2
:1046D0001A71BB681B79032B02D1BB6804221A71C3
:1046E00038220021386902F069FF3B69FA681A60D4
:1046F0003B69BA685A603A6906497868FEF786FDF0
:1047000000BF1837BD4680BD74890008988900082D
:10471000DC2108001F6E000880B584B000AF78600F
:1047200039603B68002B02D13248FCF76DFD3B68D5
:104730001B69002B02D13048FCF766FD7868FFF753
:1047400061FFF860FA681346DB009B1ADB002B4A16
:104750001344BB60386802F063FA3B681B69184673
:10476000FEF7BCFC3B681B68012B04D10021786874
:1047700002F005FB03E00021786802F028FB78686E
:1047800002F03CFA3B6800221A603B681433202296
:104790000021184602F012FF3B68002283F8352002
:1047A0003B68002283F83420BB68143320220021A8
:1047B000184602F003FFBB680833042200211846A4
:1047C00002F0FCFEBB6800221A73BB6800225A7319
:1047D000BB6800229A73BB680022DA73BB680022B0
:1047E0001A74BB68002283F8342000BF1037BD461E
:1047F00080BD00BFC0890008E4890008DC210800F2
:1048000080B584B000AF78607B68002B02D114487B
:10481000FCF7FAFC7B685B68B3F5005F03D34FF4E9
:104820008053FB8116E07B685B68B3F5805F0ED92F
:104830007B685B685B08FB81FB8903F003039BB229
:10484000002B07D0FB8923F00303FB8102E07B6888
:104850005B68FB81FB8918461037BD4680BD00BFF1
:10486000148A000890B591B004AF78603960786818
:10487000FFF7C8FEB861BA691346DB009B1ADB007C
:10488000724A13447B617B691B7CDBB20233DB0021
:104890007A69134404333B613869FFF7B1FF03467B
:1048A000FB810023FB620023BB600023BB6200236B
:1048B0007B6204233B620423FB613B681B68012B82
:1048C0000BD13B691B68BB627B6803F562637B624B
:1048D00001233B620023FB610AE07B6803F563630D
:1048E000BB623B691B687B6200233B620123FB6167
:1048F0007B6901229A737B69002283F834203B682C
:104900001B793A6AD2B2F969C9B2F8890390029167
:10491000019200930123002200210120FFF77EFD78
:10492000B8603B681869BB695B001B01484A1344C7
:1049300000937B6ABA6AB968FEF780FC7B695B7B8F
:10494000DBB21A467B690432F98923F812107B69BD
:104950005B7BDBB20133DBB203F00103DAB27B69CC
:104960005A733B695A68FB89D21A3B695A603B69A2
:104970001B681A46FB8913441A463B691A603B6957
:104980005B68002B0CD13B6900221A607B691B7CA1
:10499000DBB20133DBB203F00303DAB27B691A74D2
:1049A0000023FB622AE0BB695A00FB6A13441B0127
:1049B000274A9C183B681B68012B03D07B6803F5D2
:1049C000636200E0234A3B681B68012B03D17B68CC
:1049D00003F5626300E0204BB9694800F96A0131D0
:1049E00001F00101014409011948014400911B49EA
:1049F0002046FEF7E1FAFB6A0133FB62FB6A012BFA
:104A0000D1D93B681B68012B04D10121786802F0E1
:104A1000B6F903E00121786802F0D9F93B681B6917
:104A20009A683B681B691B7B19461046FFF7D6FC4A
:104A30003B681B691846FEF743FC786802F0CCF827
:104A4000002318463437BD4690BD00BFDC21080066
:104A5000101A0800D4210800D82108000302010020
:104A6000B0B592B004AF7860396000237B62002358
:104A700087F8233000237B6300233B630423FB621E
:104A80000423BB627868FFF7BDFDF861FA6913463D
:104A9000DB009B1ADB00694A1344BB61C2E0BB69BF
:104AA0001B7CDBB20233DB00BA69134404337B6145
:104AB000BB6993F8343087F823307B695B68002B3F
:104AC00000F0B7803B681B68012B0BD17B691B682A
:104AD0007B637B6803F562633B630123FB62002316
:104AE000BB620AE07B6803F563637B637B691B68D9
:104AF0003B630023FB620123BB62FB695B00BA6975
:104B0000D27BD2B213441B014D4A13443B61BB69B3
:104B1000DB7BDBB20133DBB203F00103DAB2BB694A
:104B2000DA73FB695B00BA69D27BD2B213441B0112
:104B3000434A1344FB607869FFF762FE03467B81BA
:104B4000BB695B7BDBB21A46BB690432798923F807
:104B50001210BB695B7BDBB20133DBB203F00103F4
:104B6000DAB2BB695A7397F82330002B14BF0123C4
:104B70000023DBB283F00103DBB203F00103DCB2FC
:104B80003B681B79FA6AD2B2B96AC9B2788997F8D8
:104B9000235003900291019200932B46224600215C
:104BA0000120FFF73BFC7862FB6800933B6B7A6B5C
:104BB000796A3869FEF700FABB699B7BDBB2013387
:104BC000DAB2BB699A73BB6993F83430DBB2002B5D
:104BD00014BF01230023DBB283F00103DBB203F037
:104BE0000103DAB2BB6983F834207B695A687B8998
:104BF000D21A7B695A607B691A687B891A447B697F
:104C00001A607B695B68002B0CD17B6900221A60FB
:104C1000BB691B7CDBB20133DBB203F00303DAB206
:104C2000BB691A74BB699B7BDBB2012B7FF637AF84
:104C300000E000BF3837BD46B0BD00BFDC21080032
:104C4000101A080080B483B000AF0346FB7197F9D7
:104C50000730002B0BDBFB7903F01F02074997F9A4
:104C600007305B09012000FA02F241F8232000BF5F
:104C70000C37BD465DF8047B704700BF00E100E0E3
:104C800080B483B000AF0346FB7197F90730002B67
:104C90000DDB0A4A97F907305B0952F82320FB79AC
:104CA00003F01F0322FA03F303F0010300E00023E3
:104CB00018460C37BD465DF8047B704700E100E004
:104CC00080B483B000AF0346FB7197F90730002B27
:104CD00012DBFB7903F01F020A4997F907305B09E1
:104CE000012000FA02F2203341F82320BFF34F8F56
:104CF00000BFBFF36F8F00BF00BF0C37BD465DF82C
:104D0000047B704700E100E080B483B000AF03464D
:104D1000FB7197F90730002B0CDBFB7903F01F02C6
:104D2000074997F907305B09012000FA02F2603366
:104D300041F8232000BF0C37BD465DF8047B704767
:104D400000E100E080B400AF054B1B69044A43F06A
:104D50000403136100BFBD465DF8047B704700BFCC
:104D600000ED00E080B483B000AF7860044A7B6857
:104D7000136000BF0C37BD465DF8047B704700BF71
:104D80008811080080B400AF00BF0C4B5B6803F0D3
:104D90000103002BF9D1094BDB68084A43F00103FA
:104DA000D36000BF054B5B6803F00103002BF9D112
:104DB00000BF00BFBD465DF8047B70470050134044
:104DC00080B584B000AF786002F0D8F8F860FFF7E3
:104DD000B9FF284BD3F800267B681B68DB4323F020
:104DE000414323F02E0323491343C1F80036214BDE
:104DF000D3F804267B6804331B68D9431E4B0B4051
:104E00001C491343C1F804361A4BD3F808267B68B3
:104E100008331B68DB4323F0404316491343C1F8B2
:104E20000836144BD3F80C267B680C331B68DB4325
:104E300023F040430F491343C1F80C360D4BD3F810
:104E400000360C4A43F00803C2F800360B4B7322BD
:104E50009A624FF4C061022002F0B1F8074B074A92
:104E60009B68936030BFF86802F099F800BF103774
:104E7000BD4680BD00200040FF0F009F0050134042
:104E800080B586B000AF0346FB80FB881B0A9BB24F
:104E90007B61FB88DBB23B6101223B6902FA03F3D1
:104EA000FB603B691F2B02D93148FCF7ADF97B69E8
:104EB000052B57D801A252F823F000BFD54E0008A9
:104EC000EF4E0008094F0008234F0008394F000833
:104ED0004F4F00084FF08042FB68136400BF4FF053
:104EE00080431A69FB681340002BF8D03BE04FF079
:104EF0008042FB68536400BF4FF080435A69FB68EF
:104F00001340002BF8D02EE04FF08042FB689364F2
:104F100000BF4FF080439A69FB681340002BF8D024
:104F200021E0144AFB68136400BF124B1A69FB6846
:104F30001340002BF9D016E00E4AFB68536400BF03
:104F40000C4B5A69FB681340002BF9D00BE0094A5F
:104F5000FB68936400BF074B9A69FB681340002B02
:104F6000F9D000E000BF00BF1837BD4680BD00BFCC
:104F70003C8A00080000024080B586B000AF0346BE
:104F8000FB80FB881B0A9BB27B61FB88DBB23B6129
:104F900001223B6902FA03F3FB603B691F2B02D934
:104FA0003448FCF731F97B69052B5DD801A252F832
:104FB00023F000BFCD4F0008E94F0008055000085E
:104FC0002150000839500008515000084FF080422D
:104FD000FB68136700BF4FF080431A69FB681340FA
:104FE000FA689A42F7D040E04FF08042FB6853677E
:104FF00000BF4FF080435A69FB681340FA689A4239
:10500000F7D032E04FF08042FB68936700BF4FF06B
:1050100080439A69FB681340FA689A42F7D024E00B
:10502000154AFB68136700BF134B1A69FB681340EE
:10503000FA689A42F8D018E00F4AFB68536700BF3D
:105040000D4B5A69FB681340FA689A42F8D00CE09D
:10505000094AFB68936700BF074B9A69FB681340D6
:10506000FA689A42F8D000E000BF00BF1837BD468A
:1050700080BD00BF5C8A00080000024080B586B099
:1050800000AFF860B9607A60FB68002B05D0BB68A0
:10509000002B02D07B68002B02D16A48FCF7B4F8E1
:1050A000FB68002B05D0BB68002B02D07B68002B6F
:1050B00001D10423C1E00121F868FEF7B9FA786153
:1050C0007B69002B01D07B69B7E0BB685B7A002B62
:1050D00023D0FB68D3F8003E43F00112FB68C3F80D
:1050E000002EFB68D3F8083E23F47062FB68C3F817
:1050F000082EFB68D3F8082EBB685B7B1B0203F409
:1051000070631A43FB68C3F8082EFB68D3F8083EA7
:1051100043F00102FB68C3F8082EBB681B7A002B22
:1051200023D0FB68D3F8003E43F00212FB68C3F8BB
:10513000002EFB68D3F8083E23F47022FB68C3F806
:10514000082EFB68D3F8082EBB689B7B1B0403F476
:1051500070231A43FB68C3F8082EFB68D3F8083E97
:1051600043F00202FB68C3F8082EBB681B791B01E1
:1051700003F03002BB685B799B0103F040031A43E4
:10518000BB689B799B0003F00C031A43BB68DB7977
:10519000DB039BB21A43BB68DB7B5B08DBB2DB0241
:1051A00003F400631A43BB68DB7B9B0303F4804377
:1051B0001A43BB681B7C1B0303F480531A43BB6870
:1051C000DB7ADB01DBB21A43BB681B7B5B0203F4B7
:1051D0000073134343F00102FB681A60BB68DB7A7B
:1051E000002B16D0BB681B684FF41652B2FBF3F1CC
:1051F00001FB03F3D31A002B08D1BB681B684FF4E3
:105200001652B2FBF3F2FB681A620FE041F25163EF
:1052100013E0BB681B687A681946F86800F054F818
:1052200078617B69002B01D07B6906E0BB689B7AC3
:105230001946F86801F0FBFE002318461837BD46F2
:1052400080BD00BF7C8A000880B582B000AF786066
:105250007B68002B02D11B48FBF7D6FF14220021EC
:10526000786802F0ABF97B684FF4E1321A607B6832
:1052700000221A717B6800225A717B6801229A71A0
:105280007B680022DA717B6800221A727B68002238
:105290005A727B680022DA727B6800225A737B683C
:1052A00000229A737B680022DA737B6800229A726C
:1052B0007B6800221A747B6800221A7300BF0837CB
:1052C000BD4680BDCC8A000880B58CB000AFF860C8
:1052D000B9607A604FF0FF33FB620F23BB624FF07F
:1052E000FF337B62FB68002B05D0BB68002B02D02C
:1052F0007B68002B02D15448FBF786FFFB68002B2C
:1053000005D0BB68002B02D07B68002B01D10423A1
:1053100095E0FB681B6803F40063002B10D0FB686A
:105320001B6803F48043002B00F088807A68BB6818
:10533000B2FBF3F3BB61BB695A1EFB681A627DE0E6
:10534000BB68424AA2FB03235A0913465B0013447D
:10535000FB61BB6A3B6242E03B6A082B03D8FA6AF6
:10536000FB699A423FD97A6813469B0013445B005D
:1053700019463B6A0133BA6802FB03F3B1FBF3F34E
:10538000053B334AA2FB0323DB08BB61BB69B3F5D2
:10539000803F20D23B6A0133BA69013202FB03F33A
:1053A0007A68B2FBF3F37B61BA687B699A4203D2F5
:1053B0007A69BB68D31A02E0BA687B69D31A3B6189
:1053C0003A69FB6A9A4207D23B69FB623B6ABB625D
:1053D000BB697B6200E000BF3B6A013B3B623B6A0A
:1053E000032BB9D800E000BFBB6A01337A6A0132EF
:1053F00002FB03F37A68B2FBF3F37B61BA687B6963
:105400009A4203D27A69BB68D31A02E0BA687B6910
:10541000D31A3B613A69FB699A4202D941F251635E
:105420000DE07B6AB3F5803F02D341F2516306E0A1
:10543000FB68BA6A9A62FB687A6A1A6200231846A5
:105440003037BD4680BD00BFF08A00081F85EB5194
:10545000CDCCCCCC80B584B000AFF860B9607A60B8
:10546000FB68002B02D0BB68002B02D11B48FBF766
:10547000CBFEFB68002B02D0BB68002B01D10423BC
:1054800027E0FB68D3F8003E03F00103002B15D1A1
:1054900004231EE000BFFB68D3F8043E03F02003A2
:1054A000002BF8D0BB681B781A46FB68C3F8202E87
:1054B000BB680133BB607B68013B7B607B68002B72
:1054C000E8D100BFFB689B6803F00803002BF9D00C
:1054D000002318461037BD4680BD00BF448B00082E
:1054E00080B586B000AFF860B9607A6000237B6158
:1054F000FB68002B02D0BB68002B02D13848FBF7B9
:1055000083FEFB68002B02D0BB68002B01D1042373
:1055100061E0FB68D3F8003E03F00203002B54D196
:10552000012358E000BFFB68D3F8043E03F04003BA
:10553000002BF8D0FB68D3F8043E03F00203002BE5
:1055400013D0FB68D3F8003E43F40032FB68C3F885
:10555000002EFB68D3F8043E43F00202FB68C3F858
:10556000042E41F24D637B6134E0FB689B683B6134
:10557000FB689A683B691A43FB689A603B6903F4CD
:105580008043002B02D041F250637B613B6903F4FE
:105590000053002B02D041F24F637B613B6903F45F
:1055A0000043002B02D041F24E637B617B69002BEC
:1055B0000FD1FB68D3F8303EDAB2BB681A70BB6813
:1055C0000133BB607B68013B7B607B68002BA9D10A
:1055D00000E000BF7B6918461837BD4680BD00BF9C
:1055E0007C8B000880B588B000AF786039607B683C
:1055F000002B02D13A48FBF707FE3B68002B02D193
:105600003848FBF701FE3B689B7B072B02D93648E5
:10561000FBF7FAFD3B689B7B1A46344B53F822306C
:10562000002B02D13248FBF7EFFD07F108031846C3
:10563000FFF70AFE3B685B68BB603B681B7B002B87
:1056400003D13B685B7B002B01D001233B753B689A
:105650001B7A022B02D102233B7308E03B681B7AC2
:10566000032B02D103233B7301E000233B733B6810
:105670005B7A012B02D101237B7301E000237B7352
:105680003B689B7A002B14BF01230023DBB23B74E1
:105690003B68DB7A002B14BF01230023DBB27B7451
:1056A00000237B750023BB753B689B7B1A460F4B21
:1056B00053F822003B681A6807F108031946FFF700
:1056C000DDFCF861FB69002B04D0F86901F0CBFC2C
:1056D000034600E0002318462037BD4680BD00BFCA
:1056E000D48B0008F88B00081C8C0008B48B0008D1
:1056F000808C000880B586B000AFF860B9607A6031
:10570000FB68002B02D11248FBF77EFDBB68002B23
:1057100002D11048FBF778FD7B68002B02D10E48C0
:10572000FBF772FDFB687B617B691B781A460B4BAC
:1057300053F822307A68B9681846FFF7D1FE38610D
:10574000386901F090FC034618461837BD4680BD05
:10575000C08C0008E48C0008048D0008B48B00089D
:1057600080B586B000AFF860B9607A60FB68002B46
:1057700002D11048FBF748FDBB68002B02D10E4850
:10578000FBF742FD7B68002B02D10C48FBF73CFD88
:10579000FB687B617B691B781A46094B53F8223002
:1057A0007A68B9681846FFF755FE0023184618377F
:1057B000BD4680BD288D00084C8D00086C8D00080A
:1057C000B48B000880B485B000AF78607B68002B94
:1057D0002AD07B68002B3EDB7B6840F63222934266
:1057E00039DC7B6840F62822934234DB7B68A3F6E1
:1057F00028230A2B2FD801A252F823F02F58000893
:10580000375800083F5800085758000857580008F4
:1058100047580008575800085758000857580008BC
:10582000575800084F5800080023FB8117E043F247
:10583000D603FB8113E043F2D703FB810FE043F271
:10584000D803FB810BE043F2D903FB8107E043F26D
:10585000DA03FB8103E043F2D503FB8100BFFB8940
:1058600018461437BD465DF8047B704780B586B096
:1058700000AF786039607B68002B02D11648FBF7D7
:10588000C3FC3B68002B02D11448FBF7BDFC7B68CE
:105890007B6107F108031846FEF770F93B681B7A35
:1058A0003B723B685B68FB603B685A7A7B6983F8B4
:1058B00044207B6993F844301A46094B53F8220080
:1058C0003B681A6807F10803194600F0DEFF002361
:1058D00018461837BD4680BDB48D0008DC8D000821
:1058E000908D000880B58AB000AF786039607B6821
:1058F000002B02D11D48FBF787FC3B68002B02D12F
:105900001B48FBF781FC7B687B623B689B68FB6004
:105910003B685B7C3B743B689B7C012B0CBF012389
:105920000023DBB27B743B68DB687B613B681B7CDC
:10593000BB613B681B68FB613B685B683B627B6AE1
:1059400093F844301A460B4B53F8223007F10C02FF
:1059500011461846FEF718FB03461846FFF732FFBC
:10596000034618462837BD4680BD00BF048E000898
:105970002C8E0008908D000880B586B000AF78604E
:1059800039603B68002B02D07B68002B02D10B48AA
:10599000FBF73AFC3B687B617B695B683B617B683A
:1059A0000833FB607B68064A5A603969F86800F082
:1059B00009F8034618461837BD4680BD648E0008B6
:1059C000548E000880B584B000AF786039607B6881
:1059D000002B02D16F48FBF717FC3B68002B02D16C
:1059E0006D48FBF711FC0023FB607B683A681A6086
:1059F0007B68181D3B68D9683B681B69674A01F0E2
:105A0000BCFB0346002B01D00123BFE0022301228F
:105A10000021786801F068FBF86001230122012170
:105A2000786801F061FBF8603B68DB785B00DBB213
:105A30000E220021786801F057FBF8603B685B7824
:105A40005B00DBB202220221786801F04DFBF860B6
:105A50003B681B78002B4CD13B689B78002B12D005
:105A60003B689B78012B07D1802380220021786836
:105A700001F03AFBF86006E00023802200217868FC
:105A800001F032FBF8603B681B799B01DBB2C0225E
:105A90000A21786801F028FBF8603B685B791B01FC
:105AA000DBB203F01003DBB210220B21786801F0A7
:105AB0001BFBF8603B685B795B08DBB25B01DBB228
:105AC00003F02003DBB220220A21786801F00CFBEE
:105AD000F8603B685B799B08DBB21B01DBB203F02B
:105AE0001003DBB210220B21786801F0FDFAF86098
:105AF00032E03B681B78012B2ED1802380220221CB
:105B0000786801F0F1FAF8603B689B795B01DBB2E1
:105B100020220221786801F0E7FAF8603B68DB791F
:105B20005B00DBB202220621786801F0DDFAF86042
:105B30003B681B7ADB01DBB280220621786801F02A
:105B4000D3FAF8603B685B7A1B01DBB210220221BA
:105B5000786801F0C9FAF860002301220121786811
:105B600001F0C2FAF860002301220021786801F0F8
:105B7000BBFAF86001F0A3FA012301220021786842
:105B800001F0B2FAF86001F09AFAFB681846103793
:105B9000BD4680BDAC8E0008D08E0008A0860100F6
:105BA00080B584B002AF78600B46FB701346BB70C3
:105BB0007B681B68002B02D10F48FBF725FB7B6835
:105BC0001B689B7A002B02D10C48FBF71DFB01F0F0
:105BD00076FA7B68181D7B681B68997AFA7801232E
:105BE0000193BB1C0093012301F0E2FA034618461F
:105BF0000837BD4680BD00BFF48E0008208F000826
:105C000080B586B002AFF8600B467A60FB72FB6825
:105C10001B68002B02D10F48FBF7F6FAFB681B68E4
:105C20009B7A002B02D10C48FBF7EEFA01F047FA01
:105C3000FB68181DFB681B68997AFA7A01230193A7
:105C40007B680093012301F0DAFA03461846103707
:105C5000BD4680BD588F0008848F000880B582B093
:105C600000AF786039603B68002B02D07B68002B66
:105C700002D10748FBF7C8FA7B683A681A603968AE
:105C8000786801F06CFA034618460837BD4680BDB7
:105C9000BC8F000880B582B000AF0C4B1B683B6026
:105CA0003B461846FCF75CFC094800F024FC002049
:105CB000FCF7FCFB78607B6801224FF4E1310020A7
:105CC000FBF7AEFA00BF0837BD4680BDFC8F000869
:105CD0000845008080B483B000AF7860044A7B68D8
:105CE000136000BF0C37BD465DF8047B704700BFF2
:105CF0006820080080B483B000AF78607B68DAB2B7
:105D00007B681B0A9900064B0B44194601239340FC
:105D10000B6000BF0C37BD465DF8047B704700BFC9
:105D20003026004080B500AF0E20FFF7E3FF1020C3
:105D3000FFF7E0FF0020FCF779FC0F20FFF7DAFF08
:105D4000FCF70EFD01F082FA214800F0D4FB0D2093
:105D5000FFF7D0FF4FF48270FFF704F84FF4827220
:105D600001210120FCF75EFF1A48FFF7B3FF1A4834
:105D7000FCF738FD13210020FCF7FAFD1821022062
:105D8000FCF7F6FD1548FCF73DFE1A210020FCF754
:105D9000FFFE02214FF4806000F0F2FB42F234403B
:105DA00000F0A9FB0F210E4800F0EAFB02214FF49E
:105DB000A06000F0E5FB0C210A4800F0E1FB09219E
:105DC000012001F02DFE084B084A1A6000BF80BD7B
:105DD0003034340400366E01209000083090000802
:105DE00040020080FC060080E4110800AF4DE80E80
:105DF00080B400AF074BD3F86831002B04D0054BBB
:105E0000D3F86831002300E0034B1846BD465DF827
:105E1000047B70470010004000366E0180B483B0F0
:105E200000AF00237B600D4BD3F8003103F4402317
:105E3000002B03D0B3F5402F03D005E0084B7B6067
:105E400005E0084B7B6002E000237B6000BF7B68BD
:105E500018460C37BD465DF8047B704700100040C3
:105E6000006CDC020087930380B500AF2D4BD3F8A4
:105E700088302C4A43F47003C2F88830294BD3F899
:105E80008830284A43F00F03C2F88830254BD3F8F6
:105E90008C30244A43F4406343F00303C2F88C304F
:105EA000214B0122DA60214BB3F1006F03D31F4B6A
:105EB000B3F1805F07D31D4BB3F1C05F2DD31B4BF4
:105EC000B3F1005F29D21A4BDB69002B25D1184BA7
:105ED0004FF0A062C3F80028154BD3F80038144ADD
:105EE00043F00043C2F8003800BF114BD3F800382C
:105EF000002BFADB0E4B0322C3F800280C4B0D4A93
:105F00005A610B4B00229A61094B0122DA61BFF3FF
:105F10006F8F00BFBFF34F8F00BF01F03FFB00BF8B
:105F200080BD00BF00ED00E000200040395F0008A8
:105F30000030034000FCFF072DE9B04F90B000AFE8
:105F40000023FB634FF000024FF00003C7E90C236E
:105F5000764BD3F8343403F00303032B00F2D380E1
:105F600001A252F823F000BF795F0008C75F000864
:105F7000CD5F0008FF6000086C4BD3F8303403F0AD
:105F80000303032B1BD801A252F823F09D5F0008E6
:105F9000A95F0008B15F0008B75F0008FFF73EFF88
:105FA00003469B08FB630DE0FFF722FFF86309E05F
:105FB0005F4BFB6306E0FFF731FFF86302E000236D
:105FC000FB6300BFA2E05B4BFB639FE0574BD3F842
:105FD000003203F00703022B0DD0022B11D8002B47
:105FE00002D0012B03D00CE0524BFB630CE0FFF717
:105FF000FFFEF86308E0FFF711FF03465B08FB6351
:1060000002E00023FB6300BF484BD3F8043203F0E7
:106010000103002B69D1FB6B0022BB62FA62434B88
:10602000D3F8103200229A469346D7E90A010B466C
:106030000AFB03F2034603FB0BF313440246A2FBE5
:106040000A894B449946394BD3F8143200223B62FB
:106050007A62D7E908234046494601F0DFFB024651
:106060000B46C7E90C23314BD3F804321B0CDAB2D0
:10607000FB6B02FB03F3FB633B6BFA6B1344FB63A9
:10608000FB6B0022BB61FA61D7E9068942464B46A9
:106090004FF000004FF00001D90041EA5271D000EA
:1060A00002460B4641465418494643EB01010D4652
:1060B00023193B6045EB05037B60D7E9004520468B
:1060C00029461A4BD3F8183200223B617A613B69AA
:1060D00003F03F03BB600023FB60D7E9022301F01C
:1060E0009DFB02460B461346FB63104BD3F8403230
:1060F000DBB20133FA6BB2FBF3F3FB6306E04FF460
:106100000043FB6302E00023FB6300BF074BD3F8AF
:106110000034DBB20133FA6BB2FBF3F3064A1360CF
:1061200000BF4037BD46BDE8B08F00BF0010004043
:1061300040420F000024F400E411080010B5174A93
:106140001749002001F0B7FA4FF480734FF48062D2
:106150000021124801F04CFA124A1349012001F0C3
:10616000AAFA4FF480734FF4806200210D4801F0C9
:106170003FFA0E4B1B68022B0EDD0D4A0A49022026
:1061800001F099FABDE810404FF480734FF480623B
:106190000021074801F02CBA10BD00BFA023080061
:1061A00044900008DC230800469000084090000856
:1061B000182408002DE9F041D5688046EB020E4610
:1061C0001446576905D5384601F019FC45F010050D
:1061D000A061124B2B408BB13846A16901F018FC2D
:1061E000002806DAE3684FF0FF3043F08003E360F5
:1061F00011E025F4003525F01005E56032464146F2
:10620000384601F00BFC20F00041761AA1690E44DB
:10621000A6610028E6D1BDE8F08100BF10000200B1
:10622000F8B5044638B905460A4B0B4E1F68A7421D
:1062300005DC2846F8BDBDE8F84001F0CFBA30468D
:1062400001F0CCFA002818BF4FF0FF3501343C367E
:10625000EDE700BF40900008A02308002DE9F843B7
:10626000C6683C4B044633400D4690461BB9022796
:106270003846BDE8F883D0F81490484601F0C2FBD8
:1062800007460028F3D1B8F1010F2CD0B8F1020F66
:106290002ED0B8F1000FEAD1002DE8DBB00404D510
:1062A0002368E26A9A4238BFE362A169A9420EDC20
:1062B0002368E26A934238BF134622695818801A4D
:1062C000A84204DB206B01EB000CAC4531DC002361
:1062D000C4E9013346F02006A56226F4032626F021
:1062E0004006E660C4E7204600F036F80544D3E7F0
:1062F000484601F084FBB0F1000CE26804DA42F099
:1063000080020127E260B3E72168A369E06A814265
:106310002CBF5B181B1821699206A3EB010303D560
:10632000A26A9342B8BF13466345ACBFED186544FB
:10633000B2E76D1AB10744BF281AA060F10744BF45
:106340009B1AEB1A154448BF6360256026F02006AF
:10635000C3E700BF03001000C3689A0705D12122DC
:106360000D4B4FF0FF301A60704703F020021B0303
:1063700009D512B1806A01387047036882690069E3
:106380001344181AF7E70AB1806A704703688269F4
:1063900000691344181A70479C2308000FB480B595
:1063A00082B000AF00237B6007F114033B603968C3
:1063B0003869FAF779FF78607B6818460837BD4678
:1063C000BDE8804004B0704780B586B000AFB960CA
:1063D0007A603B600346FB73BB687B610BE0FA7B32
:1063E0003B6A104698473B681B685A1C3B681A601A
:1063F0007B6901337B617A697B689A42EFDB00BF7E
:1064000000BF1837BD4680BD80B48FB000AFF860C4
:10641000B9607A603B600023FB62FB68BB62BB6AC9
:106420005A1CBA6200221A7000237B6000237B6230
:1064300000233B620023FB6100237B630023BB61DD
:1064400000233B6300237B61BB681B687B637B6B22
:10645000002B30D1BB6A30221A70FB6A0133FB6219
:10646000FB6A2CE03B687A6BB2FBF3F3BB613B68E1
:10647000BA6902FB03F37A6BD31A3B633B6B092BBC
:1064800003D83B6B30333B630AE097F84030002B76
:1064900001D0412200E061223B6B13440A3B3B6385
:1064A000BB697B63BB6A5A1CBA623A6BD2B21A7080
:1064B000FB6A0133FB627B6B002BD3D1FB6A18466E
:1064C0003C37BD465DF8047B7047042071460842A6
:1064D00002D0EFF3098001E0EFF3088081690A88B8
:1064E0004BF6AB639A4200D0FEE702318161202176
:1064F0000160704700BF80B487B000AF78600023B0
:10650000FB7500233B612CE03B691B017A6822FA92
:1065100003F37B607B6803F08023002B08D07B684B
:10652000C3F30B0303F1804303F50433FB6007E07F
:106530007B68C3F30B0303F1804303F58053FB60D7
:106540007B68C3F30B03002B06D07B681B0B03F0A7
:106550000702FB681A6001E00123FB753B69013308
:106560003B613B69012B05D8FB7D83F00103DBB266
:10657000002BC9D100BF1C37BD465DF8047B7047B6
:1065800080B485B000AF786039607B68002B08DA92
:106590007B68C3F30B0303F1804303F50433FB6013
:1065A00007E07B68C3F30B0303F1804303F58053DB
:1065B000FB60FB681B6843F00052FB681A603B6895
:1065C000002B06D1FB681B6843F08042FB681A6011
:1065D00008E03B685A1EFB681A6000BFFB681B6836
:1065E000002BFBDB00BF1437BD465DF8047B704712
:1065F00080B483B000AF78607B681846A0F10100DA
:106600000028FBD100BF0C37BD465DF8047B704706
:1066100080B584B000AF0346FB710023FB6097F99F
:10662000073013F1800F02D10123FB6004E097F9DA
:1066300007301846FCF76AFBFB6818461037BD4662
:1066400080BD80B586B000AF786000237B610023F9
:10665000FB6000233B617868FCF754FCF860002382
:106660003B6105E07B6921337B613B6901333B6121
:106670003A69FB689A42F5D37B6918461837BD46DC
:1066800080BD80B483B000AF78600B46FB70FB78B0
:10669000002B01D1012320E0FB78042B0ED87B686E
:1066A000D3F8F82FFB78033322FA03F303F0010346
:1066B000002B14BF01230023DBB20EE0FB78052B77
:1066C0000AD17B68D3F8F83F03F08003002B14BF96
:1066D00001230023DBB200E0002318460C37BD463F
:1066E0005DF8047B704780B584B000AFF8600B465E
:1066F0007A60FB72FB7A1946F868FFF7C2FF03461F
:1067000083F00103DBB2002B01D0032321E0FB68FF
:10671000D3F8F83F03F00803002B09D0FB68D3F847
:10672000F83F03F00702FB7A9A4201D0012310E000
:106730007B68002B08D0FB7A43F00803DBB21A46D3
:10674000FB68C3F8F82F03E0FA7AFB68C3F8F82F68
:10675000002318461037BD4680BD80B584B000AF19
:10676000F860B9607A603B60B968F868FDF7C0F915
:106770003B681B78002B0AD101227B6802FA03F1E7
:10678000FB68BA6802F5106243F8221022E03B6809
:106790005B78002B0AD101227B6802FA03F1FB68C7
:1067A000BA6802F50A6243F8221009E001227B6808
:1067B00002FA03F1FB68BA6802F5086243F8221096
:1067C00001227B6802FA03F1FB68BA6802F50E62E7
:1067D00043F8221000BF1037BD4680BD80B483B09F
:1067E00000AF78600B46FB70FB78002B0AD07B680B
:1067F000D3F8003803F01E0343F001027B68C3F8AE
:10680000002807E07B68D3F8003803F01E027B689D
:10681000C3F8002800BF0C37BD465DF8047B704705
:1068200080B582B000AF78600B46FB701346BB703A
:10683000BA78FB781946786800F08DF80346184658
:106840000837BD4680BD80B483B000AF78600B468A
:10685000FB70FB78002B0AD07B68D3F8003803F07C
:106860001D0343F002027B68C3F8002807E07B6841
:10687000D3F8003803F01D027B68C3F8002800BF7E
